:020000040000FA
:100000000C9462020C94C2110C949B110C948A0201
:100010000C948A020C948A020C948A020C948A0230
:100020000C948A020C948A020C948A020C94411259
:100030000C948A020C948A020C948A020C948A0210
:100040000C9451110C948A020C940F120C94E91127
:100050000C948A020C948A020C948A020C948A02F0
:100060000C9465130C948A02AED580A83FD300404F
:100070008D142002A1C8DA12817FD9F1DB40A4A639
:10008000AF6E726632342073657452463A205375EF
:10009000636365737321006E72663234205261644B
:1000A000696F20696E697469616C697A65642100A1
:1000B0006E7266323420526164696F20696E6974B1
:1000C000206661696C6564210000010808205F00FA
:1000D00000000000000000001000101010101000C0
:1000E0000000000000282800247E24247E24000034
:1000F000083E283E0A3E08006264081026460000BA
:100100005C225408140800000000000008100000E1
:10011000100808080810000008101010100800004F
:1001200014083E081400000008083E0808000008F3
:10013000101000000000000000003E000000000061
:100140001818000000000000020408102000000041
:100150001E232529311E00001F040404050600008B
:100160003F011E20211E00001E212018211E00001C
:10017000083F090A0C0800001E21201F013F000053
:100180001E21211F011E000004040810203F000052
:100190001E21211E211E00001E203E21211E0000C6
:1001A0000800000800000004080800000800000023
:1001B0001008040810000000003E003E000000008F
:1001C000040810080400000010001020423C000049
:1001D0003C027A6A523C000021213F21211E00008E
:1001E0001F21211F211F00001E210101211E0000CF
:1001F0000F112121110F00003F01011F013F0000DD
:100200000101011F013F00001E213901211E0000D4
:100210002121213F212100003E080808083E00005E
:100220001E212120202000002111090709110000B2
:100230003F010101010100002121212D3321000096
:1002400021312925232100001E212121211E00000A
:1002500001011F21211F00001E292521211E000050
:1002600021111F21211F00001E21201E011E000040
:1002700008080808087F00001E2121212121000014
:100280000C12212121210000122D21212121000009
:1002900021120C0C12210000080808142241000051
:1002A0003F020408103F00001C040404041C00006A
:1002B00020100804020000001C101010101C000088
:1002C0000808082A1C08007F000000000000003C0D
:1002D0004299858599423C003C223C201C0000004C
:1002E0001E22221E0202000038040404380000000E
:1002F0003C22223C202000003C021E221C00000068
:10030000080808180830003C407C42427C0000008D
:100310002222221E020200003810101800100018BD
:100320002420202000200000120A06060A020000F5
:1003300030080808080800002A2A2A2A16000000A7
:10034000222222221E0000001C2222221C00000267
:10035000021E22221E000060203C22223C000000DF
:1003600004040404380000001E201C021C000000CD
:10037000300808081C0800001C222222220000006D
:100380000814142222000000142A2A2A2200000045
:10039000221408142200001C203C2222220000000B
:1003A0003E0408103E000000380808060838000027
:1003B00008080808080800000E080830080E0000A9
:1003C00000000000142800680019804000436C6998
:1003D000656E7449643A2000496E697420537461F3
:1003E0007274003D3D3D3D3D3D3D3D3D3D3D3D3D0E
:1003F0003D006E726632342073657452463A205363
:1004000075636365737321006E72663234207365A1
:100410007452463A205375636365737321005352D7
:1004200065743A004469663A00523A00533A005003
:100430006F773A0020003E0049643A0020003E00F9
:100440005265643A200020003E0059656C3A002055
:10045000003E004D656E75004F6666202020004707
:100460006F7453657276200000000000240027009E
:100470002A0000000000250028002B0000000000DA
:1004800023002600290004040404040404040202D6
:100490000202020203030303030301020408102003
:1004A000408001020408102001020408102000000E
:1004B0000008000201000003040700000000000023
:1004C0000000801411241FBECFEFD8E0DEBFCDBFE7
:1004D00012E0A0E0B1E0E8ECFFE302C005900D926D
:1004E000AE3DB107D9F725E0AEEDB2E001C01D92F7
:1004F000A93EB207E1F712E0C2E6D2E004C02197BC
:10050000FE010E94E31DC136D107C9F70E942215E2
:100510000C94E21F0C94000080918104909182045D
:10052000DC01ED91FC910088F189E02D0994FF92A6
:100530000F931F93CF93DF938C01F62EC1E8D4E085
:1005400088819981DC01ED91FC91048CF58DE02D81
:10055000642F099588819981DC01ED91FC910284D9
:10056000F385E02D4F2DB801DF91CF911F910F91B1
:10057000FF900994FF920F931F93CF93DF931F92E5
:10058000CDB7DEB7F62E01E814E0F801A081B18105
:10059000ED91FC91119700A0F1A1E02D682FCD0104
:1005A0000995D8018D919C91DC01ED91FC9102A0FF
:1005B000F3A1E02D40E060E8099581E289834F2DA9
:1005C00061E0CE0101960E9497020E948C020F907A
:1005D000DF91CF911F910F91FF9008951F93CF93BB
:1005E000DF93182FC1E8D4E088819981DC01ED9177
:1005F000FC91028CF38DE02D612F09958881998102
:10060000DC01ED91FC91068CF78DE02D612F0995B1
:100610001A83DF91CF911F910895833081F028F4E0
:10062000813099F08230A9F008958730A9F08830A0
:10063000C9F08430B1F4809180008F7D03C0809137
:1006400080008F7780938000089584B58F7784BD74
:10065000089584B58F7DFBCF8091B0008F77809314
:10066000B00008958091B0008F7DF9CFCF93DF93D4
:10067000282F30E0F901E255FB4F8491F901E6564D
:10068000FB4FD491F901EA57FB4FC491CC23A1F061
:1006900081110E940D03EC2FF0E0EE0FFF1FE458D4
:1006A000FB4FA591B491EC91ED2381E090E009F42A
:1006B00080E0DF91CF91089580E090E0FACF1F9322
:1006C000CF93DF93282F30E0F901E255FB4F84915F
:1006D000F901E656FB4FD491F901EA57FB4FC4915B
:1006E000CC23A9F0162F81110E940D03EC2FF0E00E
:1006F000EE0FFF1FEE58FB4FA591B4918FB7F89402
:10070000EC91111108C0D095DE23DC938FBFDF91EF
:10071000CF911F910895DE2BF8CFCF93DF9390E018
:10072000FC01E656FB4F24918A579B4FFC018491B4
:100730008823D1F090E0880F991FFC01E859FB4F06
:10074000A591B491FC01EE58FB4FC591D491611174
:100750000EC09FB7F8948C91E22FE0958E238C9376
:100760002881E223E8839FBFDF91CF9108958FB75F
:10077000F894EC91E22BEC938FBFF6CF3FB7F8944F
:100780008091840390918503A0918603B0918703A3
:1007900026B5A89B05C02F3F19F00196A11DB11DDC
:1007A0003FBFBA2FA92F982F8827BC01CD01620F18
:1007B000711D811D911D42E0660F771F881F991FD3
:1007C0004A95D1F708958F929F92AF92BF92CF92A0
:1007D000DF92EF92FF926B017C010E94BE034B01FE
:1007E0005C01C114D104E104F104B9F00E94BE031C
:1007F000681979098A099B09683E7340810591054A
:1008000080F321E0C21AD108E108F10888EE880ED1
:1008100083E0981EA11CB11CE4CFFF90EF90DF9005
:10082000CF90BF90AF909F908F9008952FB7F8947E
:100830006091800370918103809182039091830382
:100840002FBF08950895AF92BF92CF92DF92EF929B
:10085000FF920F931F93CF93DF936C017B018B016A
:10086000040F151FEB015E01AE18BF08C017D107BA
:1008700059F06991D601ED91FC910190F081E02D44
:10088000C6010995892B79F7C501DF91CF911F9199
:100890000F91FF90EF90DF90CF90BF90AF900895B1
:1008A000FC01538D448D252F30E0842F90E0821B76
:1008B000930B541710F0CF96089501970895FC01FB
:1008C000918D828D981761F0A28DAE0FBF2FB11D53
:1008D0005D968C91928D9F5F9F73928F90E00895AB
:1008E0008FEF9FEF0895FC01918D828D981731F065
:1008F000828DE80FF11D858D90E008958FEF9FEFB9
:100900000895FC01918D228D892F90E0805C9F4F8E
:10091000821B91098F739927089588ED93E00E94B7
:10092000810421E0892B09F420E0822F089580E0E2
:1009300090E0892B29F00E948D0481110C94000015
:100940000895FC01A48DA80FB92FB11DA35ABF4F64
:100950002C91848D90E001968F739927848FA689BE
:10096000B7892C93A089B1898C91837080648C9312
:10097000938D848D981306C00288F389E02D8081C1
:100980008F7D80830895EF92FF920F931F93CF93F3
:10099000DF93EC0181E0888F9B8D8C8D98131AC0BA
:1009A000E889F989808185FF15C09FB7F894EE89A1
:1009B000FF896083E889F9898081837080648083FE
:1009C0009FBF81E090E0DF91CF911F910F91FF9049
:1009D000EF900895F62E0B8D10E00F5F1F4F0F73F1
:1009E0001127E02E8C8D8E110CC00FB607FCFACFAC
:1009F000E889F989808185FFF5CFCE010E94A104A5
:100A0000F1CFEB8DEC0FFD2FF11DE35AFF4FF0827C
:100A10009FB7F8940B8FEA89FB8980818062CFCFE2
:100A20000F931F93CF93DF938C01D0E0C0E0F801C8
:100A3000EC0FFD1F6491662341F088ED93E00E9466
:100A4000C304892B11F02196F2CFCE01DF91CF9113
:100A50001F910F910895CF93DF93EC01888D882328
:100A6000B9F0AA89BB89E889F9898C9185FD03C011
:100A7000808186FD0DC00FB607FCF7CF8C9185FFF6
:100A8000F2CF808185FFEDCFCE010E94A104E9CF96
:100A9000DF91CF91089508958CE10895CF93DF936E
:100AA000FC01228133812230310569F0EC01678D30
:100AB000858D0E945F0360E08C8D0E945F0382E061
:100AC00090E09B838A83DF91CF910895CF93DF934A
:100AD000EC0161E08B8D0E945F03898D9A8DDC01B2
:100AE000ED91FC910288F389E02DDF91CF9109947B
:100AF000CF93DF93EC01898D9A8DDC01ED91FC9110
:100B00000088F189E02D099560E08B8DDF91CF9110
:100B10000C945F03FF920F931F93CF93DF93EC012D
:100B2000162FF42E0FB7F894E881F98104ACF5ADD7
:100B3000E02D0995898D9A8DDC01ED91FC91019054
:100B4000F081E02D612F0995182F898D9A8DDC0198
:100B5000ED91FC910190F081E02D6F2D0995E881D8
:100B6000F98106ACF7ADE02DCE0109950FBF812FBD
:100B7000DF91CF911F910F91FF90089560620C94C7
:100B80008A05CF93DF93FC01228133812130310527
:100B900081F0EC0140E060E00E94BE0560E08D8DD8
:100BA0000E945F0381E090E09B838A83DF91CF9175
:100BB000089580E0FBCFCF93DF93FC012281338146
:100BC0002230310569F0EC01448D60E00E94BE05E1
:100BD00060E08D8D0E945F0382E090E09B838A83BA
:100BE000DF91CF9108950F931F93CF93DF93EC0183
:100BF000162F0FB7F894E881F98104ACF5ADE02D1C
:100C00000995898D9A8DDC01ED91FC910190F0811F
:100C1000E02D612F0995898D9A8DDC01ED91FC9174
:100C20000190F081E02D60E00995182FE881F981AD
:100C300006ACF7ADE02DCE0109950FBF812FDF91F6
:100C4000CF911F910F9108950F931F93CF93DF932F
:100C5000EC01162F0FB7F894E881F98104ACF5ADDB
:100C6000E02D0995898D9A8DDC01ED91FC91019023
:100C7000F081E02D612F0995182FE881F98106ACEC
:100C8000F7ADE02DCE0109950FBF812FDF91CF91F8
:100C90001F910F910895DF92EF92FF920F931F9390
:100CA000CF93DF93EC010FAD01118CC08A819B8142
:100CB000039741F18A819B81049771F04C8D4360C9
:100CC00060E0CE010E94BE0561E08D8D0E945F0351
:100CD00084E090E09B838A8367E1CE010E94F30564
:100CE00080FD10C060E6CE010E94F305182F81320E
:100CF00090F062EECE010E9424061FAE1E8ECE0141
:100D00000E94DB05802FDF91CF911F910F91FF9003
:100D1000EF90DF90089540E467E0CE010E94BE05A9
:100D2000DFB6F894E881F98104ACF5ADE02DCE0191
:100D30000995898D9A8DDC01ED91FC910190F081EE
:100D4000E02D61E609957E01BFE1EB0EF11C012F5C
:100D5000015070F0898D9A8DDC01ED91FC9101902C
:100D6000F081E02D60E00995F70181937F01F0CFDC
:100D7000E881F98106ACF7ADE02DCE010995DFBE23
:100D80001E8F1430C8F08F8D8E8388A18F8389A128
:100D900088878AA189878D81811107C09E818C8176
:100DA000981719F08E818F3F39F48A899B890196B3
:100DB0009B8B8A8B81E08FAF8FAD882319F0CE019A
:100DC0000E94DB050FAD9ECFCF92DF92EF92FF9294
:100DD0001F93CF93DF93FC012281338123303105B0
:100DE00081F5EC010E9416046B017C016FEFCE01CE
:100DF0000E942406182F807359F40E9416046C195F
:100E00007D098E099F09653671058105910570F38D
:100E100014FF04C061EECE010E942406CE010E94A0
:100E2000DB0540E367E0CE010E94BE0515FB882785
:100E300080F9DF91CF911F91FF90EF90DF90CF90DD
:100E4000089580E0F6CFCF93DF93EC01898D9A8DE2
:100E5000DC01ED91FC910680F781E02D099561E0C0
:100E60008B8D0E948D0361E08B8D0E945F0364E691
:100E700070E080E090E00E94E30381E0DF91CF9199
:100E800008951F93CF93DF93EC01898D9A8DDC0138
:100E9000ED91FC910684F785E02D70E060E0099506
:100EA000CE010E942307182F811106C010E0812F68
:100EB000DF91CF911F91089561E08D8D0E948D0388
:100EC00060E08D8D0E945F0340E767E0CE010E94E5
:100ED000BE054FE36CE1CE010E94BE0545E06DE129
:100EE000CE010E94BE056DE1CE010E94F305853062
:100EF000C1F41FAE1E8ECE010E94DB0561EECE0155
:100F00000E94240662EECE010E94240642E065E0C3
:100F1000CE010E94BE054FE066E0CE010E94BE05F4
:100F2000C6CF43E760E5CE010E948A0545E06DE14A
:100F3000CE010E94BE056DE1CE010E94F305853011
:100F400009F0B4CFD6CF2FB7F89491E0662339F0EB
:100F500092E0613021F082E08093260390E080915E
:100F60002503892B8093250380912603811103C0DB
:100F700081E0809326032FBF089580912603882364
:100F800061F09FB7F89420912603809124032130CB
:100F900019F48DBB9FBF08958FBF0895FC01308564
:100FA000218580912603882381F09FB7F894809152
:100FB0002603813069F48DB3809324034DB380916F
:100FC0002503809584238DBB9FBF3CBD2DBD089517
:100FD00090932403FACF9FB7F8948091230388233A
:100FE00019F081508093230380912303811105C060
:100FF0008CB58F7B8CBD109226039FBF08950895FA
:101000006EBD00000DB407FEFDCF8EB50895FC0146
:10101000738362830895FC01778366830895FC01DE
:1010200075836483089508950895FC0184899589E2
:101030000895FC01828993890895FC018089918932
:10104000089580E00895FC01738362830895FC0194
:10105000828193810895FC01868597850895FC011E
:1010600081850895FC0180850895FC01878108959C
:10107000FC01868108954095FC0125854223642B5F
:1010800065870895FC0164870895FC0163870895CE
:10109000FC0162870895FC0164830895FC01658367
:1010A00008958F929F92AF92BF92CF92DF92EF926C
:1010B000FF92CF93DF93EC016B010E9416044B016A
:1010C0005C01F12CE12C0E941604681979098A0947
:1010D0009B096C157D058E059F0580F48A819B8197
:1010E000039789F381E0DF91CF91FF90EF90DF903C
:1010F000CF90BF90AF909F908F90089580E0F3CFF6
:10110000FC012281338123303105D1F381E0089540
:101110004F925F926F927F928F929F92AF92BF9207
:10112000CF92DF92EF92FF920F931F93CF93DF93B3
:10113000EC016B018A010E9416042B013C01F12C89
:10114000E12C4801B12CA12C0E94160464197509E8
:10115000860997096C157D058E059F0588F4E88141
:10116000F9810680F781E02DCE010995811109C032
:101170000115110549F3C501B4010E94E303E4CF51
:1011800080E0DF91CF911F910F91FF90EF90DF9062
:10119000CF90BF90AF909F908F907F906F905F9017
:1011A0004F900895CF92DF92EF92FF920F931F938B
:1011B000CF93DF93EC018B016B01F12CE12CE881E3
:1011C000F9810680F781E02DCE010995811108C0D3
:1011D00001151105A1F3C701B6010E94E303EFCF8A
:1011E000DF91CF911F910F91FF90EF90DF90CF9003
:1011F000089581E008951F93CF93DF93C1E0C093DA
:10120000DF02882399F1D091B8001091BA00809143
:10121000BC008A7B8093BC0060E082E10E945F0397
:1012200060E083E10E945F031092AE03C093AD03C0
:101230001092880361E082E10E945F0361E083E134
:101240000E945F038091B9008E7F8093B9008091E6
:10125000B9008D7F8093B90088E48093B80085E45D
:101260008093BC001093BA00D093B800DF91CF9167
:101270001F910895CF92DF92EF92FF920F931F93E9
:10128000CF93DF93D091D70381E0D13208F09CC097
:10129000C091D6030E94BE036B017C018091AE0316
:1012A00081116CC082E08093AE0381E08093AD0336
:1012B0008FEF8093AC031092AB03D093AA03A6EBFD
:1012C000B3E0EAE8F3E080E0D8138DC01092890320
:1012D00080918903CC0FC82BC09389038091880328
:1012E000813009F084C0109288030E94BE036B0114
:1012F0007C01809189038093BB008091B003909121
:10130000B103A091B203B091B303892B8A2B8B2B2D
:10131000A1F00E94BE030091B0031091B10320918F
:10132000B2033091B3036C197D098E099F0906172A
:1013300017072807390708F442C08091BC0083FDD5
:10134000D8CF85EC8093BC000E94BE036B017C016A
:101350008091AE03823009F44CC08091AC038F3F82
:1013600009F469C08091AC03803209F466C08091B1
:10137000AC03803309F463C084E026C08091B003DD
:101380009091B103A091B203B091B303892B8A2B42
:101390008B2B09F483CF0E94BE030091B003109100
:1013A000B1032091B2033091B3036C197D098E090A
:1013B0009F09061717072807390708F06FCF809194
:1013C000AF030E94FB0885E01092B5031092D7038B
:1013D0001092B403DF91CF911F910F91FF90EF9086
:1013E000DF90CF9008959D9191938F5F6DCF85EEA3
:1013F000A9CF8091B0039091B103A091B203B091B5
:10140000B303892B8A2B8B2B09F4A2CF0E94BE0336
:101410000091B0031091B1032091B2033091B30356
:101420006C197D098E099F090617170728073907C8
:1014300008F08ECFC4CF80E0C7CF82E0C5CF83E075
:10144000C3CF20910003260F3327331F21323105EC
:10145000ECF42091AE03FC0190E080E0243069F0D0
:1014600082E00895A09100032191AC0140525D4FAC
:10147000A40FB52FB11D2C930196861798F3809178
:101480000003680F6093000380E0089581E00895F1
:101490008FEF9FEF08958FEF9FEF08958091DE0209
:1014A00090E09195819591090895CF92DF92EF9206
:1014B000FF920F931F93CF93DF937C01CB018A019F
:1014C0002091B403222389F0EB016B01C40ED51ED9
:1014D000CC15DD0569F06991D701ED91FC91019082
:1014E000F081E02DC7010995F3CF642F0E94210AF6
:1014F000C801DF91CF911F910F91FF90EF90DF9086
:10150000CF900895CF93DF931F92CDB7DEB7698355
:101510002091B4032223F9F02091D703203258F010
:1015200021E030E0FC013383228390E080E00F90E3
:10153000DF91CF9108958091B503E82FF0E0EA5450
:10154000FC4F998190838F5F8093B5038093D7037D
:1015500081E090E0ECCF61E0CE0101960E94210A8B
:10156000F7CF90E080E008950F931F93CF93DF9320
:10157000EC01062F142F8E85813120F4882329F069
:10158000411103C00E943A091E868E85811112C046
:101590008D8591E09093B4038093D6031092B503A8
:1015A0001092D70360E4111101C060E085E794E078
:1015B0000E94820A602F85E794E00E94820A12301E
:1015C00041F48E858F5F8E87DF91CF911F910F91B0
:1015D00008950E943A091E86F7CF40E0682F86EDF5
:1015E00095E00C94B40ACF93E6EDF5E08283C681D2
:1015F000C80F8C2F8F700E94ED0A8C2F82958F70F0
:101600008061CF910C94ED0A9091DB0596959695AB
:101610009695891728F48093D905806B0C94ED0A70
:101620000895CF93C62F9091DA05891710F40E9480
:10163000F30A8C2FCF910C94040B9091DE05992323
:1016400021F091509093DE0508952091D905909155
:10165000DB05291740F46091E105682742E086ED3B
:1016600095E00C94B40A08950F931F93CF93DF93E2
:10167000C091DB05C695C695C695C1501091DA0597
:1016800011501092DE05D0E06D2F80E00E94110B0A
:1016900000E08091E1050E941D0B0F5F1017C8F755
:1016A000DF5FCD1788F760E080E0DF91CF911F9179
:1016B0000F910C94110B2F923F924F925F926F9269
:1016C0007F928F929F92AF92BF92CF92DF92EF92D2
:1016D000FF920F931F93CF93DF9300D000D01F9200
:1016E000CDB7DEB72091DF053091E005211531053A
:1016F00009F40CC1F9013296F49031969491092FB6
:1017000010E0095F1F4F43E0159507954A95E1F7F3
:10171000098331964491319654918D30E9F480E0FB
:101720000E94040B81E090E00F900F900F900F90BB
:101730000F90DF91CF911F910F91FF90EF90DF906D
:10174000CF90BF90AF909F908F907F906F905F9061
:101750004F903F902F9008958A3089F480E00E9446
:10176000040B9091E2058091D805909F800D112483
:101770009091DA058917B0F60E94F30AD3CF841747
:10178000A0F1E42FE50FFF27FF1F8E171F066CF552
:10179000841B412CB9016A5F7F4F7D836C8360910C
:1017A000DD054091E205649F402D11244A834110DC
:1017B0001AC0F90144912F5F3F4FF9012491342F52
:1017C00022303105C0F4F09EA001F19E500D11248D
:1017D000849F9001859F300D11246C817D81620F63
:1017E000731F7D836C83E12C2EC0803209F08EC084
:1017F00044244394CFCF977028E0E22EE91A911148
:1018000001C0E12CEC81FD8190E030E020E08917FF
:1018100031F04491240F311D9F5F3196F8CFEC8158
:10182000FD81E80FF11DF490029FF001039FF00D80
:10183000129FF00D1124E50FF11D8C819D818E0FFB
:101840009F1F9D838C835090D8053090D90590912F
:10185000DE059B83AF2CB12CCC24C394D12C712CEE
:10186000252C2F0CE9817E1608F045C0612C809153
:10187000E2056816A8F5FB81F093DE05711002C041
:10188000662029F06091D905822D0E94110B912CC0
:10189000812C8F14D0F480E0411005C0EC81FD81D3
:1018A000E80DF91D8491EE2051F00C151D0539F459
:1018B00090E00E2C02C0959587950A94E2F70E945D
:1018C0001D0B6FEF861A960AE4CF912C7A81791559
:1018D00029F080E00E941D0B9394F8CF6394C7CF4A
:1018E00073948FEFC81AD80AEC81FD81EA0DFB1DB5
:1018F000FD83EC83B7CF81E0830D0E94040B8091C0
:10190000DA05581608F00ECF852D36CF90E080E02E
:101910000BCFEF92FF920F931F93CF93DF93FC01B6
:10192000E480F58000811181D0E0C0E0EC16FD0676
:1019300049F0F80181918F010E945B0B892B11F016
:101940002196F4CFCE01DF91CF911F910F91FF909F
:10195000EF9008950C945B0B4F925F926F927F9281
:10196000AF92BF92EF92FF920F931F93CF93DF93AB
:10197000CDB7DEB7A1970FB6F894DEBF0FBECDBFCF
:1019800019A2423008F44AE0F12CE12C8E010F5DDF
:101990001F4F442E512C712C612CA30192010E94E7
:1019A000B21DE62FB901CA01EA30BCF4E05DD801EE
:1019B000EE938D01BFEFEB1AFB0A232B242B252B73
:1019C00061F75801AE0CBF1CA016B10641F0F8013A
:1019D00081918F010E945B0BF7CFE95CE8CFC701D3
:1019E000A1960FB6F894DEBF0FBECDBFDF91CF91A9
:1019F0001F910F91FF90EF90BF90AF907F906F90ED
:101A00005F904F900895CF92DF92EF92FF92CF9325
:101A1000DF936C01990FEE08FF08F7FE17C08DE207
:101A20000E945B0BEC0166277727CB016C197D09BF
:101A30008E099F094AE00E94AC0C8C0F9D1FDF911C
:101A4000CF91FF90EF90DF90CF9008954AE0C701CB
:101A5000B601DF91CF91FF90EF90DF90CF900C9483
:101A6000AC0C682F70E090E080E04AE00C94AC0C85
:101A7000FC0101900020E9F73197AF01481B590B99
:101A8000BC0188ED93E00C9423048F929F92AF9257
:101A9000BF920F931F93CF93DF93CDB7DEB7A1977C
:101AA0000FB6F894DEBF0FBECDBF19A2423008F4C6
:101AB0004AE08E010F5D1F4F842E912CB12CA12C7A
:101AC000A50194010E94B21DE62FB901CA01EA30B6
:101AD000F4F4E05DD801EE938D01232B242B252B0C
:101AE00079F790E080E0109719F0CD010E94380D51
:101AF000A1960FB6F894DEBF0FBECDBFDF91CF9198
:101B00001F910F91BF90AF909F908F900895E95CC7
:101B1000E1CFCF93DF93682F70E090E080E04AE060
:101B20000E94450DEC0189EC91E00E94380D8C0F6C
:101B30009D1FDF91CF910895CF93DF930E94380DC1
:101B4000EC0189EC91E00E94380D8C0F9D1FDF9114
:101B5000CF910895CF93DF930E941005EC0189EC9B
:101B600091E00E94380D8C0F9D1FDF91CF91089559
:101B70003F924F925F926F927F928F929F92AF921D
:101B8000BF92CF92DF92EF92FF920F931F93CF936A
:101B9000DF935C01062F142F309088043394309229
:101BA0008804812C412C512C320153949924939414
:101BB000980C80918B04881508F4E7C0809181040B
:101BC00090918204DC01ED91FC9100A0F1A1E02D47
:101BD000632D0995B1E040EC60E09B1611F040E800
:101BE00060E48091810490918204DC01ED91FC918C
:101BF00002A0F3A1E02D0995412F602FC5010E949D
:101C000097020E948C021F3F99F481E0DF91CF91EF
:101C10001F910F91FF90EF90DF90CF90BF90AF900A
:101C20009F908F907F906F905F904F903F9008951E
:101C3000B1E0B91598F48091840490918504A09145
:101C40008604B09187040196A11DB11D8093840480
:101C500090938504A0938604B09387040E94160491
:101C60006B017C01C0918904D0918A040E94CB1C35
:101C7000A30192010E94491D9B01AC01DE010E945B
:101C8000681DA30192010E94491D2C0F3D1FC20E29
:101C9000D31EE11CF11C892C0E941604A701960199
:101CA000261B370B480B590BCA01B901161617062C
:101CB000180619060CF07ACFA0918104B091820425
:101CC000ED91FC9111970488F589E02D50E040E0FA
:101CD000CD010995882301F38091810490918204BC
:101CE000DC01ED91FC910084F185E02D50E040E0B5
:101CF00070E060E00995882379F2809181049091E9
:101D00008204DC01ED91FC9100A4F1A5E02D099580
:101D1000D82F8091810490918204DC01ED91FC9197
:101D200006A0F7A1E02D0995982E8091810490914D
:101D30008204DC01ED91FC9102A4F3A5E02D09954C
:101D4000C82F8091810490918204DC01ED91FC9177
:101D500004A4F5A5E02D09951D1309C090918304F5
:101D6000991105C087FF03C03C1609F44ECF87FDCB
:101D700093CFED2FF0E0EF57FB4F83858C138CCF83
:101D80006D2F8C2F0E94BA0287CF80E03FCF1F9328
:101D9000CF93DF93CDB7DEB76A970FB6F894DEBF67
:101DA0000FBECDBF0E9416046093790370937A032F
:101DB00080937B0390937C0383E589838EE48A83FD
:101DC000A7E0B1E0FE013196AE01475E5F4FCF0163
:101DD0002FEF13963C911397332371F13C9132838B
:101DE00011963C911197338312963C91129734834C
:101DF00014963396E417F50761F72091740311E008
:101E0000121B412F6AE10E94B80D8823C9F08CECA7
:101E100091E00E949C0D612F70E090E080E04AE02C
:101E20000E94450D6A960FB6F894DEBF0FBECDBF77
:101E3000DF91CF911F910895228323832483D8CFEC
:101E400088ED91E00E94380D812F0E94890DEACF24
:101E50008F929F92AF92BF92CF92DF92EF92FF92BA
:101E6000CF93DF93FC012789308D232BB9F1EC014F
:101E70000E9416044B015C0189E0C82ED12CE12C94
:101E8000F12CE881F981008CF18DE02DCE010995CE
:101E9000882321F10E941604AB01BC01481959099D
:101EA0006A097B098F89988DB0E0A0E084179507B7
:101EB000A607B707F8F00E94CB1CA70196010E9465
:101EC000491D9B01AC012F5F3F4F4F4F5F4FA4E671
:101ED000B0E00E94681D0E94E303D3CF81E0DF9150
:101EE000CF91FF90EF90DF90CF90BF90AF909F90F9
:101EF0008F90089580E0F3CF0E94CB1FFC0180817A
:101F00009181009711F00C94851E08950C94851E04
:101F10000F931F93CF93FC018281938140E054E2A1
:101F200064EF70E084309105C1F040E052E16AE76F
:101F300070E08330910589F040E059E06DE370E096
:101F40008230910551F040E452E46FE070E0019777
:101F500021F440E854E86EE170E0A481B581868107
:101F60009781009709F466C08130910509F45EC03D
:101F70008230910509F45CC0039709F05BC08CE0E6
:101F800000E012E12AE730E090E0401751076207D5
:101F9000730740F436952795179507959F5F963000
:101FA000A1F797E021E0292730E5119709F430E700
:101FB0002695282B232B2087909591709187CFB75A
:101FC000F89480912303811127C0E0E9F4E0849123
:101FD000E4EAF4E09491E82FF0E0EE0FFF1FE859F7
:101FE000FB4FA591B491EC91E92321F461E08AE0E3
:101FF0000E945F0361E08AE00E948D038CB58061DE
:102000008CBD8CB580648CBD61E08DE00E948D0339
:1020100061E08BE00E948D03809123038F5F8093AA
:102020002303CFBFCF911F910F91089584E0A8CFD4
:1020300088E0A6CF80E0A4CFEF92FF920F931F938A
:10204000CF93DF93EC017B01198218821B821A82E5
:102050001D821C82CB010E942A1D8C01BC016F5F76
:102060007F4F90E080E00E940E1F0097B9F09983A7
:1020700088831B830A832C813D81232B11F4FC016F
:1020800010821D830C83B70188819981DF91CF91E4
:102090001F910F91FF90EF900C94231D88819981DF
:1020A000009711F00E94851E198218821D821C82E1
:1020B0001B821A82DF91CF911F910F91FF90EF90B9
:1020C0000895DF92EF92FF920F931F93CF93DF93C8
:1020D000EC017B018A01E881F9810680F781E02D1E
:1020E0000995D82E8823E1F0E114F104B9F0011527
:1020F0001105A1F08E8D482F4350550BF8019081AA
:102100009417150614F084508083F801408150E044
:10211000BE016D5D7F4FC7010E94D01F1FAE1E8E96
:102120008D2DDF91CF911F910F91FF90EF90DF9058
:102130000895DF92EF92FF920F931F93CF93DF9357
:102140004D3150F000E0802FDF91CF911F910F9122
:10215000FF90EF90DF900895142F7B01EC01E88150
:10216000F9810688F789E02D0995082F882351F316
:102170008A858F8F8B8588A38C8589A38D858AA37B
:10218000412F50E0B701CE0183960E94D01F1C5F03
:10219000DFB6F894E881F98104ACF5ADE02DCE010D
:1021A0000995898D9A8DDC01ED91FC910190F0816A
:1021B000E02D60EB09957E01BFE1EB0EF11C1150A3
:1021C00068F0898D9A8DF70161917F01DC01ED91B5
:1021D000FC910190F081E02D0995F1CFE881F98122
:1021E00006ACF7ADE02DCE010995DFBE8A819B815B
:1021F0000397B9F060E08D8D0E945F0340E367E0D4
:10220000CE010E94BE054C8D426060E0CE010E946E
:10221000BE0561E08D8D0E945F0383E090E09B83AB
:102220008A838C899D8901969D8B8C8B8CCF85EDC3
:102230008093BC008091B0039091B103A091B20350
:10224000B091B3030796A11DB11D23E0B695A795E4
:10225000979587952A95D1F72091BC0024FD03C05E
:102260001092AE0308954091B0035091B103609174
:10227000B2037091B303452B462B472B69F30097AC
:10228000A105B10541F02AE22A95F1F700C00197B6
:10229000A109B109E1CF8091AF030C94FB080C9424
:1022A0003B1D1F920F920FB60F9211242F933F9355
:1022B0008F939F93AF93BF938091800390918103FD
:1022C000A0918203B091830330917F0323E0230F19
:1022D0002D3758F50196A11DB11D20937F038093E2
:1022E000800390938103A0938203B0938303809132
:1022F000840390918503A0918603B0918703019692
:10230000A11DB11D8093840390938503A093860340
:10231000B0938703BF91AF919F918F913F912F9180
:102320000F900FBE0F901F90189526E8230F02966E
:10233000A11DB11DD2CF1F920F920FB60F92112483
:102340002F933F934F935F936F937F938F939F93BD
:10235000AF93BF93EF93FF93E0910201F0910301DC
:102360000995FF91EF91BF91AF919F918F917F91CF
:102370006F915F914F913F912F910F900FBE0F90F2
:102380001F9018951F920F920FB60F9211242F9342
:102390003F934F935F936F937F938F939F93AF93ED
:1023A000BF93EF93FF93E0910001F0910101099534
:1023B000FF91EF91BF91AF919F918F917F916F911D
:1023C0005F914F913F912F910F900FBE0F901F90F3
:1023D00018951F920F920FB60F9211242F933F93CF
:1023E0004F935F936F937F938F939F93AF93BF931D
:1023F000EF93FF9388ED93E00E94A104FF91EF918A
:10240000BF91AF919F918F917F916F915F914F910C
:102410003F912F910F900FBE0F901F9018951F9214
:102420000F920FB60F9211242F938F939F93EF93D8
:10243000FF93E091E803F091E9038081E091EE03DE
:10244000F091EF0382FD1BC090818091F1038F5FBB
:102450008F732091F203821741F0E091F103F0E0D5
:10246000E852FC4F958F8093F103FF91EF919F917C
:102470008F912F910F900FBE0F901F901895808114
:10248000F4CF1F920F920FB60F9211242F933F9308
:102490004F935F936F937F938F939F93AF93BF936C
:1024A000EF93FF938091020090910300049709F04D
:1024B000C2C080911B000E94360321E0892B09F4E1
:1024C00020E080911E00922F9827281719F083B1E1
:1024D0008F5F83B982B18917F1F184B12DE1803525
:1024E00008F42BE084B1820F84B992B984B1803AA8
:1024F00008F46EC086B197B19695879597B986B95D
:1025000083B1853028F086B197B1986097B986B9C4
:1025100084B1805A84B913B885B1882309F480C086
:1025200088B18F5F88B98C3008F452C086B197B1FA
:10253000982F9F73892F86958695887028E0280F9D
:10254000281769F0E82FF0E0EF5CFE4F3081931719
:1025500039F08F5FF5CF84B18C5E84B9C7CF80E04E
:1025600090E1899F9001112486B197B136E096954C
:1025700087953A95E1F7482F959587959595879595
:10258000887098E0980F981749F0E82FF0E0EF5C1A
:10259000FE4F5081451719F08F5FF5CF80E0822BF9
:1025A00090916D00911125C080936C0090916C000A
:1025B000973020F090916C009434D8F015B8809149
:1025C00010009091110001969093110080931000DB
:1025D000FF91EF91BF91AF919F918F917F916F91FB
:1025E0005F914F913F912F910F900FBE0F901F90D1
:1025F0001895E0916D0091E09E0F90936D00F0E0D2
:1026000081A790916D0080916C00981738F015B8F3
:1026100081E080B990E080E00E944E0518B8D8CFE4
:1026200086B197B188339B4099F681E085B918B897
:1026300010926D00CDCF809102009091030003971E
:1026400039F68091700091E0980F9093700081119D
:1026500013C0E0916E008091FF00E817A8F090E0B1
:1026600080E00E944E058091140090911500019623
:10267000909315008093140080917000883008F4C6
:10268000A7CF10927000A4CFF0E0EF58FF4F608109
:1026900070E080916F0091E0980F90936F0002C0FE
:1026A000759567958A95E2F7617080911C000E948C
:1026B0005F0380916F008630F8F210926F00809176
:1026C0006E008F5F80936E00D7CF1F920F920FB670
:1026D0000F9211242F933F934F935F936F937F93A8
:1026E0008F939F93AF93BF93EF93FF938091B90024
:1026F000887F803609F44AC0F0F5883209F4A5C015
:1027000018F5803109F499C0B8F4882309F4F5C0AC
:10271000883009F492C0FF91EF91BF91AF919F91E2
:102720008F917F916F915F914F913F912F910F907A
:102730000FBE0F901F901895883109F486C0803223
:1027400051F78093AC0314C0803409F49BC040F46B
:102750008033B9F38833F9F68093AC0385ECAEC0CF
:10276000803509F483C0883509F494C0883499F61B
:102770000E941711D0CF883909F48AC038F58837FC
:1027800029F050F4883611F0803729F683E08093E1
:10279000AE031092220355C0883809F479C08039FD
:1027A00019F0803809F0B7CF80912203803208F009
:1027B0006FC0E091220381E08E0F8093220380910D
:1027C000BB00F0E0EE5FFC4F80833BC0803B39F004
:1027D000D0F4803A09F477C0883A09F09CCF84E0BD
:1027E0008093AE031092010310920003F0E0E0E04A
:1027F00009958091000381110FC081E0809300034F
:102800001092E00209C0803C09F4A8CF883C09F48A
:10281000A5CF883B09F07FCFE091010381E08E0FC7
:1028200080930103F0E0E052FD4F80818093BB0074
:10283000909101038091000329C0809189038093C6
:10284000BB0085EC8093BC0066CF9091AB03809178
:10285000AA03981758F5E091AB0381E08E0F80939F
:10286000AB03F0E0E657FC4F8081E9CFE091AB038A
:1028700081E08E0F8093AB038091BB00F0E0E657C0
:10288000FC4F80839091AB038091AA039817C8F204
:1028900085E8D8CFE091AB0381E08E0F8093AB0346
:1028A0008091BB00F0E0E657FC4F80838091AD0340
:1028B00081115ECF81E08093880384EA8093BC001D
:1028C0001092AE0328CF85EC8093BC001092AE032B
:1028D00080912203803230F4E0912203F0E0EE5F39
:1028E000FC4F10826091220370E082E093E0F0E000
:1028F000E0E00995109222030ECF1092AC0338CF7E
:10290000E8EDF3E01382128248EE53E060E070E0FD
:10291000448355836683778385E491E09183808344
:1029200085EC90E09587848784EC90E09787868794
:1029300080EC90E0918B808B81EC90E0938B828B8C
:1029400082EC90E0958B848B86EC90E0978B868B65
:10295000118E128E138E148EACE8B5E013961C9275
:102960001E92129715961C921E92149717961C92FF
:102970001E92169787E591E011969C938E9380E5C1
:1029800018968C93189719961C921997E5E7F4E01E
:1029900013821282448355836683778381E791E0B3
:1029A00091838083E6EDF5E010861286118613860A
:1029B00081E0848787EC91E091838083E6E9F5E00C
:1029C000138212828FEF8483828783871486158611
:1029D000118A108A138A128A158A148A108E178A0D
:1029E000B28FA18F89E0838F83E891E09183808308
:1029F00017AE8CE0848F8AE0858FA1E8B4E0119651
:102A0000FC93EE9312961C92129713961D921D92B0
:102A10001D921C92169717961C92179788EC90E0BF
:102A200019969C938E93189783E01A968C93ECE8F2
:102A3000F4E080E091E0DF019C011D9221503040E4
:102A4000E1F70895CF93DF93CDB7DEB7AB970FB61D
:102A5000F894DEBF0FBECDBF789484B5826084BD8C
:102A600084B5816084BD85B5826085BD85B5816092
:102A700085BD80916E00816080936E001092810010
:102A800080918100826080938100809181008160CB
:102A9000809381008091800081608093800080918C
:102AA000B10084608093B1008091B0008160809318
:102AB000B00080917A00846080937A0080917A00DF
:102AC000826080937A0080917A00816080937A009E
:102AD00080917A00806880937A001092C100E09122
:102AE000E803F091E90312E01083E091E403F09130
:102AF000E5031082E091E603F091E70383E380832E
:102B00001092F003E091EC03F091ED0386E08083F6
:102B1000E091EA03F091EB03808180618083E09192
:102B2000EA03F091EB03808188608083E091EA03FF
:102B3000F091EB03808180688083E091EA03F0915B
:102B4000EB0380818F7D808383EE93E00E94AA0D4A
:102B500088ED93E00E94AA0D90E080E00E94331D72
:102B6000082F8093740381E090E00E94331D8093CE
:102B7000050182E090E00E94331D8093060183E00E
:102B800090E00E94331D80930401802F0E94EE028A
:102B90008DEC93E00E941005809174030E94890DD2
:102BA0008091050181508A3010F0109305018091C9
:102BB000060181508A3018F084E08093060110925B
:102BC000E4058CE38093E3051092D8051092D905B3
:102BD000E7ECF3E085919491E82EE9ECF3E0F490D2
:102BE000EAECF3E0E491E093DA05EBECF3E0E49156
:102BF000E093DB05ECECF3E0E491E093DC058C0181
:102C0000802F8E198F1538F4F80184910E94ED0AF7
:102C10000F5F1F4FF5CF0E94340BE9ECF0E0F0930B
:102C2000E005E093DF058491EAECF0E0E491F82F11
:102C3000319709F057C41092DD0560E082E00E94F0
:102C40008D0361E083E00E948D0361E084E00E94D7
:102C50008D0361E083E00E945F0361E084E00E94F5
:102C60005F0361E086E00E948D0361E087E00E94DF
:102C70008D0361E085E00E948D0380918104909135
:102C80008204DC01ED91FC910480F581E02D099531
:102C9000882309F431C6809183040E94EE0287E9FB
:102CA00090E00E94AA0D80910401843038F01092C7
:102CB000040160E083E090E00E944F114091040124
:102CC000440F4670496066E086E995E00E94BE05C3
:102CD00081E890E00E94AA0D57E2452E51E0552E62
:102CE0006FE0E62EF12C8E010F5F1F4F33243394DB
:102CF000222423940E941604AB01BC018091270377
:102D000090912803A0912903B0912A0348175907ED
:102D10006A077B0760F488519C4FAF4FBF4F809389
:102D2000270390932803A0932903B0932A0380914B
:102D3000270390912803A0912903B0912A03481BEF
:102D4000590B6A0B7B0B483E53406105710500F13E
:102D500088519C4FAF4FBF4F809327039093280318
:102D6000A0932903B0932A03E7E0F1E090818281E8
:102D7000993029F421812B3311F48B3329F08F5FA3
:102D80008C3308F0B3C3828334964E165F0671F716
:102D900060E083E00E945F03C7010197F1F761E003
:102DA00083E00E945F03C7010197F1F742E3A42E7D
:102DB00043E0B42E650160E084E00E945F03C70138
:102DC0000197F1F782E00E943603892B09F499C339
:102DD000D601DC961C9261E084E00E945F03C7018B
:102DE0000197F1F7F8E0CF1AD10822EFC21622E0DE
:102DF000D20609F780917E03882309F432C460E08B
:102E000088E70E94110B63E574E0C8010E941C1062
:102E1000C8010E94890CC8010E947E0F60E080E713
:102E20000E94110B80912B0361E574E0813011F059
:102E30006FE474E0C8010E941C10C8010E94890C54
:102E4000C8010E947E0F6AE474E0C8010E941C1051
:102E5000C8010E94890CC8010E947E0F8091050163
:102E60000E94310D80E20E94AA0C80E20E94AA0C0E
:102E700080E20E94AA0C60E088E60E94110B80911B
:102E80002B0368E474E0823011F066E474E0C8015A
:102E90000E941C10C8010E94890CC8010E947E0F6C
:102EA00060E474E0C8010E941C10C8010E94890CF3
:102EB000C8010E947E0F809106010E94310D80E2C0
:102EC0000E94AA0C80E20E94AA0C80E20E94AA0C36
:102ED00080E20E94AA0C60E080E60E94110B8091C3
:102EE0002B036EE374E0833011F06CE374E0C801EF
:102EF0000E941C10C8010E94890CC8010E947E0F0C
:102F000068E374E0C8010E941C10C8010E94890C8B
:102F1000C8010E947E0F809174030E94310D80E2EF
:102F20000E94AA0C80E20E94AA0C80E20E94AA0CD5
:102F300080E20E94AA0C60E088E50E94110B80915B
:102F40002B0366E374E0843011F064E374E0C8019D
:102F50000E941C10C8010E94890CC8010E947E0FAB
:102F60006FE274E0C8010E941C10C8010E94890C25
:102F7000C8010E947E0F809104010E94310D80E201
:102F80000E94AA0C80E20E94AA0C80E20E94AA0C75
:102F900080E20E94AA0C80E20E94AA0C80E20E94B9
:102FA000AA0C60E080E50E94110B6CE274E0C8019D
:102FB0000E941C10C8010E94890CC8010E947E0F4B
:102FC00080913003909131030E94030D80E20E94B2
:102FD000AA0C80E20E94AA0C80E20E94AA0C80E265
:102FE0000E94AA0C80E20E94AA0C80E20E94AA0C15
:102FF00060E088E40E94110B69E274E0C8010E945D
:103000001C10C8010E94890CC8010E947E0F80918B
:103010007203909173030E94030D80E20E94AA0C38
:1030200080E20E94AA0C80E20E94AA0C80E20E9428
:10303000AA0C80E20E94AA0C80E20E94AA0C80E204
:103040000E94AA0C60E080E40E94110B64E274E02C
:10305000C8010E941C10C8010E94890CC8010E946E
:103060007E0F809130039091310320917203309153
:103070007303821B930B0E94030D80E20E94AA0C33
:1030800080E20E94AA0C80E20E94AA0C80E20E94C8
:10309000AA0C80E20E94AA0C80E20E94AA0C80E2A4
:1030A0000E94AA0C60E088E30E94110B80E20E945B
:1030B000AA0C80E20E94AA0C80E20E94AA0C80E284
:1030C0000E94AA0C80E20E94AA0C80E20E94AA0C34
:1030D00080E20E94AA0C60E080E30E94110B6EE186
:1030E00074E0C8010E941C10C8010E94890CC8012C
:1030F0000E947E0F60917503709176038091770333
:10310000909178034AE00E94AC0C80E20E94AA0CE5
:1031100080E20E94AA0C80E20E94AA0C80E20E9437
:10312000AA0C80E20E94AA0C60E088E20E94110BC7
:1031300080E20E94AA0C80E20E94AA0C80E20E9417
:10314000AA0C80E20E94AA0C80E20E94AA0C80E2F3
:103150000E94AA0C80E20E94AA0C80913903882365
:1031600031F01092390310927E030E94340B80914B
:103170003F03882349F080912B03882329F0109284
:103180003F03815080932B0380914703882349F0AC
:1031900080912B03843028F4109247038F5F809333
:1031A0002B0380914F038823C9F010924F03809125
:1031B0002B03813009F0CAC160910501693070F4B8
:1031C000809106018150990B681719063CF46F5FD6
:1031D0006093050181E090E00E944F1180915703B8
:1031E000882349F11092570380912B03813059F4C1
:1031F00060910501633038F061506093050181E012
:1032000090E00E944F1180912B03823009F0E4C1BD
:1032100060910601633078F08091050190E001969D
:103220006817190641F03CF061506093060182E096
:1032300090E00E944F110E94160480902C03909001
:103240002D03A0902E03B0902F039B01AC012819F1
:1032500039094A095B0949015A0135EF831631E002
:103260009306A104B10460F160932C0370932D03C5
:1032700080932E0390932F0385E0E7E4F2E0D801DA
:1032800001900D928A95E1F780917403D32CD81A9E
:103290004D2D65E0C8010E94B80D882309F4D4C102
:1032A0008BEE91E00E94380D8D2D0E94890D80914A
:1032B0003003909131030196909331038093300352
:1032C0008091810490918204DC01ED91FC91068053
:1032D000F781E02D0995882309F4B2C080E28BA71D
:1032E0008091810490918204DC01ED91FC91068033
:1032F000F781E02D0995882309F4BAC280918104F1
:1033000090918204DC01ED91FC910084F185E02D27
:10331000AE01455D5F4FB8010995882309F4A8C245
:103320008091810490918204DC01ED91FC9100A4D4
:10333000F1A5E02D0995D82E809181049091820409
:10334000DC01ED91FC9106A0F7A1E02D0995B82EC6
:103350008091810490918204DC01ED91FC9102A4A2
:10336000F3A5E02D0995C82E8091810490918204E7
:10337000DC01ED91FC9104A4F5A5E02D099587FDF4
:1033800077C2809183048B1104C06D2D8C2D0E9417
:10339000BA02ED2DF0E0EF57FB4F83858C1509F451
:1033A00067C2C3868BA58A3108F40DC28981833533
:1033B00009F009C28A818E3409F005C28FE594E0D4
:1033C0000E9410056091740370E090E080E04AE094
:1033D0000E94450D8EE092E00E94380D8D2D0E94D6
:1033E000890DD801E7E0F1E012968C9112978F3F9A
:1033F00009F0D6C11382108211821282139634967C
:103400004E165F0689F787E0E4EAF2E0DE01919666
:1034100001900D928A95E1F74D2D67E0CE018196DE
:103420000E94B80D882309F4C6C180E292E00E9490
:103430009C0D6D2D70E090E080E04AE00E94450D0B
:1034400080917D03882341F10E94160480907903C6
:1034500090907A03A0907B03B0907C03681979095F
:103460008A099B09693E734081059105A8F0809106
:10347000750390917603A0917703B091780301963C
:10348000A11DB11D8093750390937603A0937703DC
:10349000B09378030E94C70E60E087E00E945F034C
:1034A000C7010197F1F7D12CC12CB12CA12C60E000
:1034B00085E00E945F03C7010197F1F7E7E0F0E0C4
:1034C000EC19FD09EE0FFF1FEE0FFF1FE95FFE4F26
:1034D0009281A0FCD3C180910601891708F4E1C153
:1034E00060E0E4C181E08093DD05A7CB1282818199
:1034F0008F5F8C3310F4818347CC11829F5F908360
:1035000043CCF60184AD811166CC34AE0E94160422
:10351000D601D8962D913D914D915C91DB97621B20
:10352000730B840B950B693B7B408105910550F033
:10353000F60137AE0E941604F60160AF71AF82AF9C
:1035400093AF49CCD601DD963C92F4CF823059F44A
:1035500060910601693008F041CE6F5F609306010B
:1035600082E090E039CE8330A9F4809174038F5FBC
:103570008B3068F4809374036091740390E080E072
:103580000E944F11809174030E94EE0227CE109288
:103590007403F2CF843009F021CE809104018F5F53
:1035A0008430B8F4809304016091040183E090E0DA
:1035B0000E944F1140910401440F4670496066E03B
:1035C00086E995E00E94BE0588E094E00E94AA0D7D
:1035D00005CE10920401E8CF8330A1F480917403EA
:1035E00081508B3068F4809374036091740390E091
:1035F00080E00E944F11809174030E94EE021BCE66
:103600008AE0F1CF843009F016CE80910401815018
:103610008B30B8F4809304016091040183E090E062
:103620000E944F1140910401440F4670496066E0CA
:1036300086E995E00E94BE0582EF93E00E94AA0D04
:10364000FACD10920401E8CF89EF91E00E94380D85
:103650008D2D0E94890D8091300390913103019747
:103660002BCE37E0632E31E0732E6301912C812C39
:10367000D50115968C911597882351F015961C92BB
:10368000F60112821182108220927D030E94C70EE1
:10369000D50116968C911697882351F0F6018381F7
:1036A0008325838316961C9220927D030E94C70E69
:1036B000D50117968C918823A1F08114910489F487
:1036C000109239030E94340B80917E0383258093EE
:1036D0007E031092730310927203109231031092C2
:1036E0003003BFEF8B1A9B0AE8E0AE0EB11CF4E08A
:1036F000CF0ED11C28E08216910409F0B9CF812C9D
:10370000912C5401839428E7D22E2AC0F3018081A2
:103710000E94310D8AE30E94AA0CD30111968C916C
:103720008A3018F480E30E94AA0CF30181810E9480
:10373000310D80E20E94AA0C80E20E94AA0C80E275
:103740000E94AA0C38EFD30E4FEF841A940AA40AF1
:10375000B40A54E0650E711C88E3D81609F4B0CDA4
:1037600060E08D2D0E94110B4AE0C501B4010E945A
:10377000AC0C8AE30E94AA0C80E20E94AA0CD3013E
:1037800013968C918111C2CF68E574E0C8010E9444
:103790001C10C8010E94890CC8010E947E0FD2CF64
:1037A00013962C91139714969C91149733828083CF
:1037B0002183928323CE80E392E00E94380D8D2DE9
:1037C0000E94890D3DCE67E472E0C8010E94D91FB6
:1037D000892B01F58CE492E00E94380D8D2D0E941A
:1037E000890D8AE0E8E6F2E0DE01919601900D9203
:1037F0008A95E1F74D2D6AE0CE0181960E94B80DC1
:10380000882329F083E692E00E949C0D19CE82E77E
:1038100092E0FACF68E672E0C8010E94D91F08174B
:10382000190789F088E892E00E94380D8D2D0E94DA
:10383000890D8091720390917303019690937303A5
:1038400080937203FDCD64EA72E0C8010E94D91F23
:103850000817190751F08BEA92E00E94380D8D2D60
:103860000E94890D10927D03EBCD84EC92E0A5CFF0
:1038700080917203909173030197E0CF80910501CD
:10388000891728F481E020910601291708F480E0C7
:103890002FEFC21AD20A37E0C322DD24882309F4AD
:1038A0001FCE838161E0882309F41ACE86E00E944E
:1038B0005F03C7010197F1F761E085E00E945F03B4
:1038C000C7010197F1F74FEFA41AB40A50E1A5160A
:1038D000B10409F0ECCD61E087E00E945F0380E075
:1038E00090E0892B09F406CA0E948D04882309F40C
:1038F00001CA0E940000FAC980EB90E0D2C98F9201
:103900009F92AF92BF92CF92DF92EF92FF92CF93AE
:10391000DF93EC01688179818A819B816115710552
:103920008105910521F464E279ED8BE597E02DE1C5
:1039300033EF41E050E00E94491D49015A019B01CB
:10394000AC01A7EAB1E40E94681D6B017C01ACEEFA
:10395000B4EFA50194010E94761DC60ED71EE81E85
:10396000F91EF7FE06C081E0C81AD108E10880E818
:10397000F80AC882D982EA82FB82C701B6019F7722
:10398000DF91CF91FF90EF90DF90CF90BF90AF90FD
:103990009F908F9008958F929F92AF92BF92CF92F7
:1039A000DF92EF92FF926091270170912801809140
:1039B000290190912A01611571058105910521F474
:1039C00064E279ED8BE597E02DE133EF41E050E0E3
:1039D0000E94491D49015A019B01AC01A7EAB1E4CB
:1039E0000E94681D6B017C01ACEEB4EFA50194014F
:1039F0000E94761DC60ED71EE81EF91EF7FE06C0F1
:103A000081E0C81AD108E10880E8F80AC0922701CD
:103A1000D0922801E0922901F0922A01C701B60153
:103A20009F77FF90EF90DF90CF90BF90AF909F90E7
:103A30008F90089560932701709328018093290146
:103A400090932A010895FB01DC0105900D9200205E
:103A5000E1F70895FC0105900020E9F78095909525
:103A60008E0F9F1F0895F999FECF92BD81BDF89AE0
:103A7000992780B50895262FF999FECF1FBA92BDD8
:103A800081BD20BD0FB6F894FA9AF99A0FBE01963F
:103A90000895052E97FB1EF400940E94601D57FDAB
:103AA00007D00E94B21D07FC03D04EF40C94601D99
:103AB00050954095309521953F4F4F4F5F4F08955A
:103AC00090958095709561957F4F8F4F9F4F08958A
:103AD0000E94D41DA59F900DB49F900DA49F800DB2
:103AE000911D11240895B7FF0C94681D0E94681D54
:103AF000821B930B08952F923F924F925F926F9289
:103B00007F928F929F92AF92BF92CF92DF92EF926D
:103B1000FF920F931F93CF93DF93CDB7DEB7CA1BEE
:103B2000DB0B0FB6F894DEBF0FBECDBF09942A8819
:103B3000398848885F846E847D848C849B84AA84C1
:103B4000B984C884DF80EE80FD800C811B81AA814E
:103B5000B981CE0FD11D0FB6F894DEBF0FBECDBF19
:103B6000ED010895A1E21A2EAA1BBB1BFD010DC099
:103B7000AA1FBB1FEE1FFF1FA217B307E407F5071D
:103B800020F0A21BB30BE40BF50B661F771F881FF9
:103B9000991F1A9469F760957095809590959B018F
:103BA000AC01BD01CF010895A29FB001B39FC00138
:103BB000A39F700D811D1124911DB29F700D811D59
:103BC0001124911D0895EE0FFF1F0590F491E02D33
:103BD00009940F931F93CF93DF938230910510F4D4
:103BE00082E090E0E091E705F091E80530E020E028
:103BF000B0E0A0E0309799F42115310509F44AC0EE
:103C0000281B390B24303105D8F58A819B81611539
:103C1000710589F1FB0193838283FE0111C040810C
:103C200051810281138148175907E0F0481759075D
:103C300099F4109761F012960C93129713961C93B7
:103C40003296CF01DF91CF911F910F91089500938C
:103C5000E7051093E805F4CF2115310551F042171F
:103C6000530738F0A901DB019A01BD01DF01F8011A
:103C7000C1CFEF01F9CF9093E8058093E705CDCF51
:103C8000FE01E20FF31F8193919322503109398392
:103C90002883D7CF2091E5053091E605232B41F409
:103CA00020912D0130912E013093E6052093E505FA
:103CB00020912B0130912C012115310541F42DB7B4
:103CC0003EB740912F0150913001241B350BE091FC
:103CD000E505F091E605E217F307A0F42E1B3F0B74
:103CE0002817390778F0AC014E5F5F4F241735076E
:103CF00048F04E0F5F1F5093E6054093E505819312
:103D000091939FCFF0E0E0E09CCFCF93DF930097BB
:103D1000E9F0FC01329713821282A091E705B0917D
:103D2000E805ED0130E020E01097A1F42081318119
:103D3000820F931F2091E5053091E605281739077A
:103D400009F061C0F093E605E093E505DF91CF91BE
:103D50000895EA01CE17DF07E8F54A815B819E01ED
:103D600041155105B1F7E901FB83EA834991599166
:103D7000C40FD51FEC17FD0761F480819181029675
:103D8000840F951FE90199838883828193819B83A6
:103D90008A83F0E0E0E012968D919C911397009752
:103DA000B9F52D913C911197CD010296820F931F89
:103DB0002091E5053091E6052817390739F6309747
:103DC00051F51092E8051092E705B093E605A0932F
:103DD000E505BCCFD383C28340815181840F951FF9
:103DE000C817D90761F44E5F5F4F88819981480FEA
:103DF000591F518340838A819B819383828321153C
:103E0000310509F0B0CFF093E805E093E7059ECFC8
:103E1000FD01DC01C0CF13821282D7CFB0E0A0E059
:103E2000E4E1FFE10C947D1D8C01009751F4CB017E
:103E30000E94E91D8C01C801CDB7DEB7E0E10C940A
:103E4000991DFC01E60FF71F9C0122503109E21772
:103E5000F30708F49DC0D901CD91DC911197C617E5
:103E6000D70798F0C530D10530F3CE0104978617F7
:103E7000970708F3C61BD70B2297C193D1936D9375
:103E80007C93CF010E94851ED6CF5B01AC1ABD0A80
:103E90004C018C0E9D1EA091E705B091E805512CB8
:103EA000412CF12CE12C109731F58091E505909192
:103EB000E6058815990509F05CC04616570608F016
:103EC00058C080912B0190912C01009741F48DB73F
:103ED0009EB740912F0150913001841B950BE8173C
:103EE000F90708F055C0F093E605E093E505F90100
:103EF00071836083A0CF8D919C91119712966C90E5
:103F0000129713967C901397A815B90559F56C0173
:103F100042E0C40ED11CCA14DB0420F1AC014A19E2
:103F20005B09DA011296159780F0628273825183E1
:103F30004083D9016D937C93E114F10471F0D701B2
:103F40001396FC93EE93129776CF22968C0F9D1FBB
:103F5000F90191838083F301EFCFF093E805E093BB
:103F6000E70569CF4816590608F42C017D01D301F5
:103F70009ACFCB010E94E91D7C01009749F0AE0168
:103F8000B8010E94D01FC8010E94851E870153CF2F
:103F900010E000E050CF81E090E0F8940C94E21F34
:103FA000FB01DC0102C001900D9241505040D8F756
:103FB0000895FB01DC018D91019080190110D9F366
:103FC000990B0895F894FFCF220422040402040000
:103FD00000000100000001000000010000000100DD
:103FE00000000100000001000000010000000101CC
:103FF0000000000000E90580000D0E131516191AC7
:104000001C232526292A2C323400000000C3042357
:104010000450042B0581045F0473040000000000B9
:1040200008FF07FF07880FEB070F080B080708CEEC
:1040300007BD07A30700000000820A550AB10AFF66
:10404000074E0A4B0A480A000000004B05860F4144
:10405000074B06611099104C05D208E406510888F8
:1040600008280F21084B084808450842083B084E1D
:10407000083808350832082F082B0827082308C1FC
:10408000051D08190815087805660500000000B42C
:104090000A0D0A0073656E6420534E20746F200071
:1040A00073656E7420534E206661696C656420747C
:1040B0006F200073656E642070696E6720746F20D6
:1040C0000073656E742070696E67206661696C6547
:1040D0006420746F200020534E20726571756573E3
:1040E000742066726F6D200073656E642073796E44
:1040F00063656420746F200073656E742073796E3D
:10410000636564206661696C656420746F2000706B
:10411000696E6700476F742050494E472072657181
:10412000756573742066726F6D200073656E742000
:1041300070696E675F726573700073656E7420706E
:10414000696E675F72657370206661696C65640093
:10415000476F742050494E475F5245535020726557
:1041600071756573742066726F6D200073796E636C
:10417000656400476F742053594E4345442072656F
:1041800071756573742066726F6D2000476F7420BF
:10419000554E4B4E4F574E207265717565737420A6
:0641A00066726F6D200045
:107E0000112484B714BE81FFF0D085E080938100F7
:107E100082E08093C00088E18093C10086E0809377
:107E2000C20080E18093C4008EE0C9D0259A86E02C
:107E300020E33CEF91E0309385002093840096BBD3
:107E4000B09BFECF1D9AA8958150A9F7CC24DD24C4
:107E500088248394B5E0AB2EA1E19A2EF3E0BF2EE7
:107E6000A2D0813461F49FD0082FAFD0023811F036
:107E7000013811F484E001C083E08DD089C08234E0
:107E800011F484E103C0853419F485E0A6D080C0E4
:107E9000853579F488D0E82EFF2485D0082F10E0AE
:107EA000102F00270E291F29000F111F8ED06801E7
:107EB0006FC0863521F484E090D080E0DECF843638
:107EC00009F040C070D06FD0082F6DD080E0C81688
:107ED00080E7D80618F4F601B7BEE895C0E0D1E017
:107EE00062D089930C17E1F7F0E0CF16F0E7DF06D8
:107EF00018F0F601B7BEE89568D007B600FCFDCFD4
:107F0000A601A0E0B1E02C9130E011968C91119780
:107F100090E0982F8827822B932B1296FA010C0160
:107F200087BEE89511244E5F5F4FF1E0A038BF0790
:107F300051F7F601A7BEE89507B600FCFDCF97BE46
:107F4000E89526C08437B1F42ED02DD0F82E2BD052
:107F50003CD0F601EF2C8F010F5F1F4F84911BD097
:107F6000EA94F801C1F70894C11CD11CFA94CF0C13
:107F7000D11C0EC0853739F428D08EE10CD085E9AC
:107F80000AD08FE07ACF813511F488E018D01DD067
:107F900080E101D065CF982F8091C00085FFFCCF94
:107FA0009093C60008958091C00087FFFCCF809118
:107FB000C00084FD01C0A8958091C6000895E0E648
:107FC000F0E098E1908380830895EDDF803219F02E
:107FD00088E0F5DFFFCF84E1DECF1F93182FE3DFCA
:107FE0001150E9F7F2DF1F91089580E0E8DFEE27F6
:047FF000FF270994CA
:027FFE00040479
:00000001FF
