:100000000C949E020C94A5110C947E110C94C602C3
:100010000C94C6020C94C6020C94C6020C94C60240
:100020000C94C6020C94C6020C94C6020C942412C2
:100030000C94C6020C94C6020C94C6020C94C60220
:100040000C9434110C94C6020C94F2110C94CC1143
:100050000C94C6020C94C6020C94C6020C94C60200
:100060000C9448130C94C602AED580A83FD3004030
:100070008D142002A1C8DA12817FD9F1DB40A4A639
:10008000AF6E726632342073657452463A205375EF
:1000900063636573732100496E69742064697370CA
:1000A0006C617920537563636573732100000108E7
:1000B00008205F0000000000000000001000101089
:1000C000101010000000000000282800247E2424C6
:1000D0007E240000083E283E0A3E080062640810A4
:1000E000264600005C2254081408000000000000AE
:1000F0000810000010080808081000000810101070
:100100001008000014083E081400000008083E080B
:1001100008000008101000000000000000003E0071
:100120000000000018180000000000000204081081
:10013000200000001E232529311E00001F04040496
:10014000050600003F011E20211E00001E21201870
:10015000211E0000083F090A0C0800001E21201F74
:10016000013F00001E21211F011E00000404081091
:10017000203F00001E21211E211E00001E203E21C6
:10018000211E00000800000800000004080800000C
:10019000080000001008040810000000003E003EA7
:1001A00000000000040810080400000010001020E7
:1001B000423C00003C027A6A523C000021213F216F
:1001C000211E00001F21211F211F00001E210101EF
:1001D000211E00000F112121110F00003F01011FFE
:1001E000013F00000101011F013F00001E213901F4
:1001F000211E00002121213F212100003E08080886
:10020000083E00001E2121202020000021110907A6
:10021000091100003F010101010100002121212DF0
:100220003321000021312925232100001E21212115
:10023000211E000001011F21211F00001E29252170
:10024000211E000021111F21211F00001E21201E40
:10025000011E000008080808087F00001E21212157
:10026000212100000C12212121210000122D212129
:100270002121000021120C0C122100000808081492
:10028000224100003F020408103F00001C04040447
:10029000041C000020100804020000001C101010B4
:1002A000101C00000808082A1C08007F000000003D
:1002B0000000003C4299858599423C003C223C204C
:1002C0001C0000001E22221E02020000380404044A
:1002D000380000003C22223C202000003C021E226C
:1002E0001C000000080808180830003C407C42420E
:1002F0007C0000002222221E02020000381010188A
:10030000001000182420202000200000120A0606F9
:100310000A02000030080808080800002A2A2A2AD1
:1003200016000000222222221E0000001C2222228F
:100330001C000002021E22221E000060203C22221D
:100340003C00000004040404380000001E201C02CD
:100350001C000000300808081C0800001C22222293
:10036000220000000814142222000000142A2A2A65
:1003700022000000221408142200001C203C22222B
:10038000220000003E0408103E0000003808080665
:100390000838000008080808080800000E0808309F
:1003A000080E0000000000001428005374617274ED
:1003B00020696E697420646973706C617920666F5E
:1003C0006E74006800198040005374617274206973
:1003D0006E697420646973706C617900496E697428
:1003E00020726164696F20537563636573732100C4
:1003F0006E7266323420526164696F20696E69746E
:1004000069616C697A656421006E726632342052CB
:100410006164696F20696E6974206661696C6564E6
:100420002100537461727420696E69742072616472
:10043000696F00496E6974205374617274003D3DA8
:100440003D3D3D3D3D3D3D3D3D3D3D3D006E72668A
:1004500032342073657452463A2053756363657372
:100460007321006E726632342073657452463A20EE
:100470005375636365737321005265743A00446970
:10048000663A00523A00533A00506F773A00200023
:100490003E0049643A0020003E005265643A200064
:1004A00020003E0059656C3A0020003E004D656E0C
:1004B00075002020202020202020200053796E630A
:1004C0002E2E2E0053796E63203000202020202015
:1004D0002020003A004F66662020200020003A00CD
:1004E00000000000240027002A0000000000250072
:1004F00028002B000000000023002600290004042F
:1005000004040404040402020202020203030303BB
:100510000303010204081020408001020408102097
:10052000010204081020000000080002010000037E
:1005300004070000000000000000631411241FBE27
:10054000CFEFD8E0DEBFCDBF12E0A0E0B1E0E6ED36
:10055000F0E402C005900D92A830B107D9F725E06C
:10056000A8E0B2E001C01D92A133B207E1F712E0AA
:10057000CEE9D2E004C02197FE010E948F1FCD3941
:10058000D107C9F70E9405150C9469200C9400004E
:100590008091C9039091CA03DC01ED91FC91008820
:1005A000F189E02D0994FF920F931F93CF93DF936E
:1005B0008C01F62EC9ECD3E088819981DC01ED91A4
:1005C000FC91048CF58DE02D642F0995888199812B
:1005D000DC01ED91FC910284F385E02D4F2DB801F3
:1005E000DF91CF911F910F91FF900994FF920F938C
:1005F0001F93CF93DF931F92CDB7DEB7F62E09EC92
:1006000013E0F801A081B181ED91FC91119700A058
:10061000F1A1E02D682FCD010995D8018D919C9114
:10062000DC01ED91FC9102A0F3A1E02D40E060E837
:10063000099581E289834F2D61E0CE0101960E94E8
:10064000D3020E94C8020F90DF91CF911F910F91AA
:10065000FF9008951F93CF93DF93182FC9ECD3E039
:1006600088819981DC01ED91FC91028CF38DE02D64
:10067000612F099588819981DC01ED91FC91068CAF
:10068000F78DE02D612F09951A83DF91CF911F918E
:100690000895833081F028F4813099F08230A9F0F8
:1006A00008958730A9F08830C9F08430B1F4809182
:1006B00080008F7D03C0809180008F7780938000C1
:1006C000089584B58F7784BD089584B58F7DFBCF61
:1006D0008091B0008F778093B00008958091B00032
:1006E0008F7DF9CFCF93DF93282F30E0F901EA5DBA
:1006F000FA4F8491F901EE5EFA4FD491F901E2507C
:10070000FB4FC491CC23A1F081110E944903EC2F2F
:10071000F0E0EE0FFF1FEC50FB4FA591B491EC9170
:10072000ED2381E090E009F480E0DF91CF9108951E
:1007300080E090E0FACF1F93CF93DF93282F30E033
:10074000F901EA5DFA4F8491F901EE5EFA4FD49116
:10075000F901E250FB4FC491CC23A9F0162F81116F
:100760000E944903EC2FF0E0EE0FFF1FE651FB4F14
:10077000A591B4918FB7F894EC91111108C0D09560
:10078000DE23DC938FBFDF91CF911F910895DE2B85
:10079000F8CFCF93DF9390E0FC01EE5EFA4F249107
:1007A00082509B4FFC0184918823D1F090E0880F08
:1007B000991FFC01E052FB4FA591B491FC01E65159
:1007C000FB4FC591D49161110EC09FB7F8948C91E5
:1007D000E22FE0958E238C932881E223E8839FBF4C
:1007E000DF91CF9108958FB7F894EC91E22BEC93C1
:1007F0008FBFF6CF3FB7F8948091CC029091CD0295
:10080000A091CE02B091CF0226B5A89B05C02F3F84
:1008100019F00196A11DB11D3FBFBA2FA92F982F26
:100820008827BC01CD01620F711D811D911D42E021
:10083000660F771F881F991F4A95D1F708958F92E9
:100840009F92AF92BF92CF92DF92EF92FF926B0195
:100850007C010E94FA034B015C01C114D104E10444
:10086000F104B9F00E94FA03681979098A099B0911
:10087000683E73408105910580F321E0C21AD108DA
:10088000E108F10888EE880E83E0981EA11CB11CD7
:10089000E4CFFF90EF90DF90CF90BF90AF909F900C
:1008A0008F9008952FB7F8946091C8027091C90293
:1008B0008091CA029091CB022FBF08950895AF9204
:1008C000BF92CF92DF92EF92FF920F931F93CF933D
:1008D000DF936C017B018B01040F151FEB015E019F
:1008E000AE18BF08C017D10759F06991D601ED9134
:1008F000FC910190F081E02DC6010995892B79F7D3
:10090000C501DF91CF911F910F91FF90EF90DF9084
:10091000CF90BF90AF900895FC01538D448D252F4B
:1009200030E0842F90E0821B930B541710F0CF9689
:10093000089501970895FC01918D828D981761F0BB
:10094000A28DAE0FBF2FB11D5D968C91928D9F5FD2
:100950009F73928F90E008958FEF9FEF0895FC01B1
:10096000918D828D981731F0828DE80FF11D858D64
:1009700090E008958FEF9FEF0895FC01918D228DF7
:10098000892F90E0805C9F4F821B91098F7399277C
:10099000089580E293E00E94BD0421E0892B09F4D0
:1009A00020E0822F089580E090E0892B29F00E94BA
:1009B000C90481110C9400000895FC01A48DA80FB6
:1009C000B92FB11DA35ABF4F2C91848D90E0019691
:1009D0008F739927848FA689B7892C93A089B189B1
:1009E0008C91837080648C93938D848D981306C052
:1009F0000288F389E02D80818F7D80830895EF92B6
:100A0000FF920F931F93CF93DF93EC0181E0888FC8
:100A10009B8D8C8D98131AC0E889F989808185FF98
:100A200015C09FB7F894EE89FF896083E889F9893A
:100A300080818370806480839FBF81E090E0DF913C
:100A4000CF911F910F91FF90EF900895F62E0B8D8F
:100A500010E00F5F1F4F0F731127E02E8C8D8E114A
:100A60000CC00FB607FCFACFE889F989808185FFB1
:100A7000F5CFCE010E94DD04F1CFEB8DEC0FFD2F01
:100A8000F11DE35AFF4FF0829FB7F8940B8FEA896C
:100A9000FB8980818062CFCFCF93DF93EC01888D7B
:100AA0008823B9F0AA89BB89E889F9898C9185FDE9
:100AB00003C0808186FD0DC00FB607FCF7CF8C9177
:100AC00085FFF2CF808185FFEDCFCE010E94DD044E
:100AD000E9CFDF91CF91089508958CE10895CF93E8
:100AE000DF93FC01228133812230310569F0EC0172
:100AF000678D858D0E949B0360E08C8D0E949B0317
:100B000082E090E09B838A83DF91CF910895CF9319
:100B1000DF93EC0161E08B8D0E949B03898D9A8DA0
:100B2000DC01ED91FC910288F389E02DDF91CF91FA
:100B30000994CF93DF93EC01898D9A8DDC01ED91BF
:100B4000FC910088F189E02D099560E08B8DDF91A3
:100B5000CF910C949B03FF920F931F93CF93DF933E
:100B6000EC01162FF42E0FB7F894E881F98104AC4C
:100B7000F5ADE02D0995898D9A8DDC01ED91FC9103
:100B80000190F081E02D612F0995182F898D9A8DA4
:100B9000DC01ED91FC910190F081E02D6F2D099524
:100BA000E881F98106ACF7ADE02DCE0109950FBFC4
:100BB000812FDF91CF911F910F91FF900895606277
:100BC0000C94AB05CF93DF93FC012281338121305C
:100BD000310581F0EC0140E060E00E94DF0560E05B
:100BE0008D8D0E949B0381E090E09B838A83DF913F
:100BF000CF91089580E0FBCFCF93DF93FC0122815A
:100C000033812230310569F0EC01448D60E00E94AF
:100C1000DF0560E08D8D0E949B0382E090E09B8366
:100C20008A83DF91CF9108950F931F93CF93DF9322
:100C3000EC01162F0FB7F894E881F98104ACF5ADFB
:100C4000E02D0995898D9A8DDC01ED91FC91019043
:100C5000F081E02D612F0995898D9A8DDC01ED9150
:100C6000FC910190F081E02D60E00995182FE8815A
:100C7000F98106ACF7ADE02DCE0109950FBF812FAC
:100C8000DF91CF911F910F9108950F931F93CF93F1
:100C9000DF93EC01162F0FB7F894E881F98104ACCB
:100CA000F5ADE02D0995898D9A8DDC01ED91FC91D2
:100CB0000190F081E02D612F0995182FE881F981CD
:100CC00006ACF7ADE02DCE0109950FBF812FDF9166
:100CD000CF911F910F910895DF92EF92FF920F93A2
:100CE0001F93CF93DF93EC010FAD01118CC08A816C
:100CF0009B81039741F18A819B81049771F04C8D10
:100D0000436060E0CE010E94DF0561E08D8D0E94AE
:100D10009B0384E090E09B838A8367E1CE010E947D
:100D2000140680FD10C060E6CE010E941406182F44
:100D3000813290F062EECE010E9445061FAE1E8EFB
:100D4000CE010E94FC05802FDF91CF911F910F9162
:100D5000FF90EF90DF90089540E467E0CE010E949D
:100D6000DF05DFB6F894E881F98104ACF5ADE02D3C
:100D7000CE010995898D9A8DDC01ED91FC91019050
:100D8000F081E02D61E609957E01BFE1EB0EF11CDB
:100D9000012F015070F0898D9A8DDC01ED91FC914D
:100DA0000190F081E02D60E00995F70181937F01CA
:100DB000F0CFE881F98106ACF7ADE02DCE010995C1
:100DC000DFBE1E8F1430C8F08F8D8E8388A18F8375
:100DD00089A188878AA189878D81811107C09E8119
:100DE0008C81981719F08E818F3F39F48A899B89FD
:100DF00001969B8B8A8B81E08FAF8FAD882319F092
:100E0000CE010E94FC050FAD9ECFCF92DF92EF92F4
:100E1000FF921F93CF93DF93FC0122813381233014
:100E2000310581F5EC010E9452046B017C016FEFEA
:100E3000CE010E944506182F807359F40E94520477
:100E40006C197D098E099F0965367105810591052B
:100E500070F314FF04C061EECE010E944506CE017E
:100E60000E94FC0540E367E0CE010E94DF0515FB10
:100E7000882780F9DF91CF911F91FF90EF90DF904D
:100E8000CF90089580E0F6CFCF93DF93EC01898D6A
:100E90009A8DDC01ED91FC910680F781E02D09959A
:100EA00061E08B8D0E94C90361E08B8D0E949B03E2
:100EB00064E670E080E090E00E941F0481E0DF9132
:100EC000CF9108951F93CF93DF93EC01898D9A8D75
:100ED000DC01ED91FC910684F785E02D70E060E087
:100EE0000995CE010E944407182F811106C010E019
:100EF000812FDF91CF911F91089561E08D8D0E9428
:100F0000C90360E08D8D0E949B0340E767E0CE013E
:100F10000E94DF054FE36CE1CE010E94DF0545E052
:100F20006DE1CE010E94DF056DE1CE010E94140645
:100F30008530C1F41FAE1E8ECE010E94FC0561EE0D
:100F4000CE010E94450662EECE010E94450642E0B7
:100F500065E0CE010E94DF054FE066E0CE010E9411
:100F6000DF05C6CF43E760E5CE010E94AB0545E053
:100F70006DE1CE010E94DF056DE1CE010E941406F5
:100F8000853009F0B4CFD6CF2FB7F89491E066231F
:100F900039F092E0613021F082E08093500290E0DD
:100FA00080914F02892B80934F02809150028111D2
:100FB00003C081E0809350022FBF089580915002BA
:100FC000882361F09FB7F8942091500280914E02DF
:100FD000213019F48DBB9FBF08958FBF0895FC0188
:100FE0003085218580915002882381F09FB7F89445
:100FF00080915002813069F48DB380934E024DB3DD
:1010000080914F02809584238DBB9FBF3CBD2DBD39
:10101000089590934E02FACF9FB7F89480914D02B5
:10102000882319F0815080934D0280914D028111E7
:1010300005C08CB58F7B8CBD109250029FBF089568
:1010400008956EBD00000DB407FEFDCF8EB5089566
:10105000FC01738362830895FC017783668308959E
:10106000FC0175836483089508950895FC018489C3
:1010700095890895FC01828993890895FC018089EE
:101080009189089580E00895FC0173836283089537
:10109000FC01828193810895FC01868597850895DE
:1010A000FC0181850895FC0180850895FC018781FC
:1010B0000895FC01868108954095FC012585422311
:1010C000642B65870895FC0164870895FC0163879C
:1010D0000895FC0162870895FC0164830895FC0172
:1010E000658308958F929F92AF92BF92CF92DF92C5
:1010F000EF92FF92CF93DF93EC016B010E945204B9
:101100004B015C01F12CE12C0E9452046819790911
:101110008A099B096C157D058E059F0580F48A81DF
:101120009B81039789F381E0DF91CF91FF90EF904E
:10113000DF90CF90BF90AF909F908F90089580E008
:10114000F3CFFC012281338123303105D1F381E0DB
:1011500008954F925F926F927F928F929F92AF927B
:10116000BF92CF92DF92EF92FF920F931F93CF9394
:10117000DF93EC016B018A010E9452042B013C01B8
:10118000F12CE12C4801B12CA12C0E9452046419CD
:101190007509860997096C157D058E059F0588F4EC
:1011A000E881F9810680F781E02DCE010995811152
:1011B00009C00115110549F3C501B4010E941F04BE
:1011C000E4CF80E0DF91CF911F910F91FF90EF90DE
:1011D000DF90CF90BF90AF909F908F907F906F9057
:1011E0005F904F900895CF92DF92EF92FF920F930E
:1011F0001F93CF93DF93EC018B016B01F12CE12C5A
:10120000E881F9810680F781E02DCE0109958111F1
:1012100008C001151105A1F3C701B6010E941F0402
:10122000EFCFDF91CF911F910F91FF90EF90DF9063
:10123000CF90089581E008951F93CF93DF93C1E08D
:10124000C0930902882399F1D091B8001091BA0097
:101250008091BC008A7B8093BC0060E082E10E94A8
:101260009B0360E083E10E949B031092F602C0930F
:10127000F5021092D00261E082E10E949B0361E0DE
:1012800083E10E949B038091B9008E7F8093B90017
:101290008091B9008D7F8093B90088E48093B80075
:1012A00085E48093BC001093BA00D093B800DF911E
:1012B000CF911F910895CF92DF92EF92FF920F93FB
:1012C0001F93CF93DF93D0911F0381E0D13208F0B9
:1012D0009CC0C0911E030E94FA036B017C018091A7
:1012E000F60281116CC082E08093F60281E0809367
:1012F000F5028FEF8093F4021092F302D093F20282
:10130000AEEFB2E0E2EDF2E080E0D8138DC01092D3
:10131000D1028091D102CC0FC82BC093D102809111
:10132000D002813009F084C01092D0020E94FA03EA
:101330006B017C018091D1028093BB008091F80207
:101340009091F902A091FA02B091FB02892B8A2BAD
:101350008B2BA1F00E94FA030091F8021091F90280
:101360002091FA023091FB026C197D098E099F09C8
:10137000061717072807390708F442C08091BC00F8
:1013800083FDD8CF85EC8093BC000E94FA036B01EB
:101390007C018091F602823009F44CC08091F40205
:1013A0008F3F09F469C08091F402803209F466C06D
:1013B0008091F402803309F463C084E026C08091F8
:1013C000F8029091F902A091FA02B091FB02892BE8
:1013D0008A2B8B2B09F483CF0E94FA030091F80229
:1013E0001091F9022091FA023091FB026C197D09EB
:1013F0008E099F09061717072807390708F06FCFCE
:101400008091F7020E941C0985E01092FD02109263
:101410001F031092FC02DF91CF911F910F91FF905B
:10142000EF90DF90CF9008959D9191938F5F6DCF56
:1014300085EEA9CF8091F8029091F902A091FA026D
:10144000B091FB02892B8A2B8B2B09F4A2CF0E942F
:10145000FA030091F8021091F9022091FA023091FA
:10146000FB026C197D098E099F09061717072807CB
:10147000390708F08ECFC4CF80E0C7CF82E0C5CF58
:1014800083E0C3CF20912A02260F3327331F213256
:101490003105ECF42091F602FC0190E080E024306C
:1014A00069F082E00895A0912A022191AC01465F83
:1014B0005D4FA40FB52FB11D2C930196861798F39D
:1014C00080912A02680F60932A0280E0089581E0EB
:1014D00008958FEF9FEF08958FEF9FEF089580910C
:1014E000080290E09195819591090895CF92DF923D
:1014F000EF92FF920F931F93CF93DF937C01CB0169
:101500008A012091FC02222389F0EB016B01C40EB9
:10151000D51ECC15DD0569F06991D701ED91FC91DF
:101520000190F081E02DC7010995F3CF642F0E944F
:10153000420AC801DF91CF911F910F91FF90EF9068
:10154000DF90CF900895CF93DF931F92CDB7DEB792
:1015500069832091FC022223F9F020911F0320329D
:1015600058F021E030E0FC013383228390E080E0FA
:101570000F90DF91CF9108958091FD02E82FF0E068
:10158000E250FD4F998190838F5F8093FD0280939D
:101590001F0381E090E0ECCF61E0CE0101960E9454
:1015A000420AF7CF90E080E00895ECE5F2E0148283
:1015B000178216821582389682E0EC39F807B9F75F
:1015C00008950F931F93CF93DF93EC01062F142FF1
:1015D0008E85813120F4882329F0411103C00E94B7
:1015E0005B091E868E85811112C08D8591E09093D6
:1015F000FC0280931E031092FD0210921F0360E410
:10160000111101C060E08DEB93E00E94A30A602FEE
:101610008DEB93E00E94A30A123041F48E858F5F18
:101620008E87DF91CF911F910F9108950E945B09E2
:101630001E86F7CF40E0682F8EE195E00C94E10A1A
:10164000CF93EEE1F5E08283C681C80F8C2F8F70B7
:101650000E941A0B8C2F82958F708061CF910C9411
:101660001A0B90912305969596959695891728F4CF
:1016700080932105806B0C941A0B0895CF93C62F8D
:1016800090912205891710F40E94200B8C2FCF9186
:101690000C94310B90912605992321F09150909351
:1016A000260508952091210590912305291740F4DE
:1016B00060912905682742E08EE195E00C94E10AEB
:1016C00008950F931F93CF93DF93C0912305C69581
:1016D000C695C695C150109122051150109226054D
:1016E000D0E06D2F80E00E943E0B00E08091290544
:1016F0000E944A0B0F5F1017C8F7DF5FCD1788F7FE
:1017000060E080E0DF91CF911F910F910C943E0B30
:101710002F923F924F925F926F927F928F929F9201
:10172000AF92BF92CF92DF92EF92FF920F931F93EF
:10173000CF93DF9300D000D01F92CDB7DEB72091BA
:101740002705309128052115310509F40CC1F9014F
:101750003296F49031969491092F10E0095F1F4F53
:1017600043E0159507954A95E1F709833196449131
:10177000319654918D30E9F480E00E94310B81E084
:1017800090E00F900F900F900F900F90DF91CF91FE
:101790001F910F91FF90EF90DF90CF90BF90AF908F
:1017A0009F908F907F906F905F904F903F902F9081
:1017B00008958A3089F480E00E94310B90912A05C7
:1017C00080912005909F800D11249091220589170A
:1017D000B0F60E94200BD3CF8417A0F1E42FE50FC1
:1017E000FF27FF1F8E171F066CF5841B412CB901C4
:1017F0006A5F7F4F7D836C836091250540912A0548
:10180000649F402D11244A8341101AC0F90144916C
:101810002F5F3F4FF9012491342F22303105C0F45E
:10182000F09EA001F19E500D1124849F9001859F90
:10183000300D11246C817D81620F731F7D836C8359
:10184000E12C2EC0803209F08EC044244394CFCFC7
:10185000977028E0E22EE91A911101C0E12CEC8189
:10186000FD8190E030E020E0891731F04491240FB1
:10187000311D9F5F3196F8CFEC81FD81E80FF11D9E
:10188000F490029FF001039FF00D129FF00D1124C0
:10189000E50FF11D8C819D818E0F9F1F9D838C8391
:1018A0005090200530902105909126059B83AF2C08
:1018B000B12CCC24C394D12C712C252C2F0CE98174
:1018C0007E1608F045C0612C80912A056816A8F59F
:1018D000FB81F0932605711002C0662029F060910B
:1018E0002105822D0E943E0B912C812C8F14D0F467
:1018F00080E0411005C0EC81FD81E80DF91D849167
:10190000EE2051F00C151D0539F490E00E2C02C0AC
:10191000959587950A94E2F70E944A0B6FEF861A15
:10192000960AE4CF912C7A81791529F080E00E9403
:101930004A0B9394F8CF6394C7CF73948FEFC81A70
:10194000D80AEC81FD81EA0DFB1DFD83EC83B7CF46
:1019500081E0830D0E94310B80912205581608F01A
:101960000ECF852D36CF90E080E00BCFEF92FF9227
:101970000F931F93CF93DF93FC01E480F5800081E8
:101980001181D0E0C0E0EC16FD0649F0F80181912C
:101990008F010E94880B892B11F02196F4CFCE0184
:1019A000DF91CF911F910F91FF90EF90089580E20A
:1019B0000C94880B4F925F926F927F92AF92BF927E
:1019C000EF92FF920F931F93CF93DF93CDB7DEB7C4
:1019D000A1970FB6F894DEBF0FBECDBF19A242305B
:1019E00008F44AE0F12CE12C8E010F5D1F4F442ECC
:1019F000512C712C612CA30192010E945E1FE62FD5
:101A0000B901CA01EA30BCF4E05DD801EE938D0162
:101A1000BFEFEB1AFB0A232B242B252B61F7580170
:101A2000AE0CBF1CA016B10641F0F80181918F01E8
:101A30000E94880BF7CFE95CE8CFC701A1960FB6EB
:101A4000F894DEBF0FBECDBFDF91CF911F910F91F4
:101A5000FF90EF90BF90AF907F906F905F904F900E
:101A60000895CF92DF92EF92FF92CF93DF936C01B4
:101A7000990FEE08FF08F7FE17C08DE20E94880B51
:101A8000EC0166277727CB016C197D098E099F0928
:101A90004AE00E94DA0C8C0F9D1FDF91CF91FF90DE
:101AA000EF90DF90CF9008954AE0C701B601DF9133
:101AB000CF91FF90EF90DF90CF900C94DA0C682FCD
:101AC00070E090E080E04AE00C94DA0C3F924F9294
:101AD0005F926F927F928F929F92AF92BF92CF92BE
:101AE000DF92EF92FF920F931F93CF93DF935C01EE
:101AF000062F142F3090D00333943092D003812CD2
:101B0000412C512C3201539499249394980C809138
:101B1000D303881508F4E7C08091C9039091CA03E4
:101B2000DC01ED91FC9100A0F1A1E02D632D099560
:101B3000B1E040EC60E09B1611F040E860E4809179
:101B4000C9039091CA03DC01ED91FC9102A0F3A1BD
:101B5000E02D0995412F602FC5010E94D3020E94FC
:101B6000C8021F3F99F481E0DF91CF911F910F913F
:101B7000FF90EF90DF90CF90BF90AF909F908F90AD
:101B80007F906F905F904F903F900895B1E0B915AE
:101B900098F48091CC039091CD03A091CE03B091A5
:101BA000CF030196A11DB11D8093CC039093CD036B
:101BB000A093CE03B093CF030E9452046B017C012B
:101BC000C091D103D091D2030E94771EA30192014C
:101BD0000E94F51E9B01AC01DE010E94141FA301AF
:101BE00092010E94F51E2C0F3D1FC20ED31EE11C58
:101BF000F11C892C0E945204A7019601261B370B69
:101C0000480B590BCA01B901161617061806190612
:101C10000CF07ACFA091C903B091CA03ED91FC9169
:101C200011970488F589E02D50E040E0CD01099539
:101C3000882301F38091C9039091CA03DC01ED91DF
:101C4000FC910084F185E02D50E040E070E060E020
:101C50000995882379F28091C9039091CA03DC0128
:101C6000ED91FC9100A4F1A5E02D0995D82F80916C
:101C7000C9039091CA03DC01ED91FC9106A0F7A184
:101C8000E02D0995982E8091C9039091CA03DC013B
:101C9000ED91FC9102A4F3A5E02D0995C82F809148
:101CA000C9039091CA03DC01ED91FC9104A4F5A550
:101CB000E02D09951D1309C09091CB03991105C022
:101CC00087FF03C03C1609F44ECF87FD93CFED2F5D
:101CD000F0E0E753FC4F83858C138CCF6D2F8C2F56
:101CE0000E94F60287CF80E03FCFCF93DF93CDB73E
:101CF000DEB76A970FB6F894DEBF0FBECDBF60E0C7
:101D000080E00E943E0B80E991E00E94310D0E942C
:101D100052046093A0027093A1028093A202909358
:101D2000A30283E589838EE48A83A7E0B1E0FE0104
:101D30003196AE01475E5F4FCF012FEF13963C9176
:101D40001397332339F13C91328311963C911197CB
:101D5000338312963C911297348314963396E4178A
:101D6000F50761F72091C10241E0421B6AE10E9440
:101D7000660D60E080E00E943E0B84EA91E00E94E4
:101D8000310D6A960FB6F894DEBF0FBECDBFDF915E
:101D9000CF910895228323832483DFCF8F929F9254
:101DA000AF92BF92CF92DF92EF92FF92CF93DF93E9
:101DB000FC012789308D232BB9F1EC010E945204DC
:101DC0004B015C0189E0C82ED12CE12CF12CE8817B
:101DD000F981008CF18DE02DCE010995882321F148
:101DE0000E945204AB01BC01481959096A097B09D8
:101DF0008F89988DB0E0A0E084179507A607B707F4
:101E0000F8F00E94771EA70196010E94F51E9B0123
:101E1000AC012F5F3F4F4F4F5F4FA4E6B0E00E94F1
:101E2000141F0E941F04D3CF81E0DF91CF91FF9058
:101E3000EF90DF90CF90BF90AF909F908F900895DC
:101E400080E0F3CF42E050E06BEC71E080E293E0A1
:101E50000C945F040F931F93CF93DF938C01D0E01A
:101E6000C0E0F801EC0FFD1F6491662341F080E2B1
:101E700093E00E94FF04892B11F02196F2CF0E947B
:101E8000220F8C0F9D1FDF91CF911F910F9108950D
:101E9000CF93DF93FC0101900020E9F73197AF0168
:101EA000481B590BBC0180E293E00E945F04EC01E7
:101EB0000E94220F8C0F9D1FDF91CF9108950E94E9
:101EC0005220FC0180819181009711F00C94A21D99
:101ED00008950C94A21D0F931F93CF93FC01828150
:101EE000938140E054E264EF70E084309105C1F0EA
:101EF00040E052E16AE770E08330910589F040E00C
:101F000059E06DE370E08230910551F040E452E415
:101F10006FE070E0019721F440E854E86EE170E072
:101F2000A481B58186819781009709F466C08130CC
:101F3000910509F45EC08230910509F45CC00397F5
:101F400009F05BC08CE000E012E12AE730E090E0AD
:101F5000401751076207730740F436952795179588
:101F600007959F5F9630A1F797E021E0292730E59C
:101F7000119709F430E72695282B232B208790957D
:101F800091709187CFB7F89480914D02811127C04D
:101F9000E8E0F5E08491ECE1F5E09491E82FF0E0E1
:101FA000EE0FFF1FE052FB4FA591B491EC91E92396
:101FB00021F461E08AE00E949B0361E08AE00E94D4
:101FC000C9038CB580618CBD8CB580648CBD61E02B
:101FD0008DE00E94C90361E08BE00E94C9038091FB
:101FE0004D028F5F80934D02CFBFCF911F910F9114
:101FF000089584E0A8CF88E0A6CF80E0A4CFEF9238
:10200000FF920F931F93CF93DF93EC017B01198213
:1020100018821B821A821D821C82CB010E94D61E4E
:102020008C01BC016F5F7F4F90E080E00E94951FA4
:102030000097B9F0998388831B830A832C813D81A3
:10204000232B11F4FC0110821D830C83B7018881BE
:102050009981DF91CF911F910F91FF90EF900C9498
:10206000CF1E88819981009711F00E94A21D1982CC
:1020700018821D821C821B821A82DF91CF911F91D0
:102080000F91FF90EF900895DF92EF92FF920F93E0
:102090001F93CF93DF93EC017B018A01E881F981E3
:1020A0000680F781E02D0995D82E8823E1F0E11410
:1020B000F104B9F001151105A1F08E8D482F4350A0
:1020C000550BF80190819417150614F08450808305
:1020D000F801408150E0BE016D5D7F4FC7010E9455
:1020E00057201FAE1E8E8D2DDF91CF911F910F9126
:1020F000FF90EF90DF900895DF92EF92FF920F93A1
:102100001F93CF93DF934D3150F000E0802FDF918C
:10211000CF911F910F91FF90EF90DF900895142FB2
:102120007B01EC01E881F9810688F789E02D0995AA
:10213000082F882351F38A858F8F8B8588A38C8500
:1021400089A38D858AA3412F50E0B701CE018396E4
:102150000E9457201C5FDFB6F894E881F98104AC37
:10216000F5ADE02DCE010995898D9A8DDC01ED91BB
:10217000FC910190F081E02D60EB09957E01BFE1BB
:10218000EB0EF11C115068F0898D9A8DF701619169
:102190007F01DC01ED91FC910190F081E02D09952A
:1021A000F1CFE881F98106ACF7ADE02DCE010995BC
:1021B000DFBE8A819B810397B9F060E08D8D0E941C
:1021C0009B0340E367E0CE010E94DF054C8D426037
:1021D00060E0CE010E94DF0561E08D8D0E949B03CF
:1021E00083E090E09B838A838C899D8901969D8BF7
:1021F0008C8B8CCF85ED8093BC008091F802909100
:10220000F902A091FA02B091FB020796A11DB11D3F
:1022100023E0B695A795979587952A95D1F72091B4
:10222000BC0024FD03C01092F60208954091F8020C
:102230005091F9026091FA027091FB02452B462BF6
:10224000472B69F30097A105B10541F02AE22A95D1
:10225000F1F700C00197A109B109E1CF8091F70220
:102260000C941C090C94E71E1F920F920FB60F924C
:1022700011242F933F938F939F93AF93BF9380919C
:10228000C8029091C902A091CA02B091CB023091CC
:10229000C70223E0230F2D3758F50196A11DB11D6C
:1022A0002093C7028093C8029093C902A093CA02E8
:1022B000B093CB028091CC029091CD02A091CE023E
:1022C000B091CF020196A11DB11D8093CC029093D5
:1022D000CD02A093CE02B093CF02BF91AF919F9158
:1022E0008F913F912F910F900FBE0F901F901895D7
:1022F00026E8230F0296A11DB11DD2CF1F920F9287
:102300000FB60F9211242F933F934F935F936F93C8
:102310007F938F939F93AF93BF93EF93FF93E0913E
:102320000201F09103010995FF91EF91BF91AF91E7
:102330009F918F917F916F915F914F913F912F91DD
:102340000F900FBE0F901F9018951F920F920FB60F
:102350000F9211242F933F934F935F936F937F932B
:102360008F939F93AF93BF93EF93FF93E0910001FF
:10237000F09101010995FF91EF91BF91AF919F916C
:102380008F917F916F915F914F913F912F910F901E
:102390000FBE0F901F9018951F920F920FB60F92BD
:1023A00011242F933F934F935F936F937F938F935A
:1023B0009F93AF93BF93EF93FF9380E293E00E94CC
:1023C000DD04FF91EF91BF91AF919F918F917F912C
:1023D0006F915F914F913F912F910F900FBE0F9092
:1023E0001F9018951F920F920FB60F9211242F93E2
:1023F0008F939F93EF93FF93E0913003F09131031C
:102400008081E0913603F091370382FD1BC09081FB
:10241000809139038F5F8F7320913A03821741F0C7
:10242000E0913903F0E0E05EFC4F958F8093390333
:10243000FF91EF919F918F912F910F900FBE0F9071
:102440001F9018958081F4CF1F920F920FB60F92B4
:1024500011242F933F934F935F936F937F938F93A9
:102460009F93AF93BF93EF93FF938091020090915E
:102470000300049709F0C2C080911B000E94720300
:1024800021E0892B09F420E080911E00922F9827EB
:10249000281719F083B18F5F83B982B18917F1F1E1
:1024A00084B12DE1803508F42BE084B1820F84B92A
:1024B00092B984B1803A08F46EC086B197B196950E
:1024C000879597B986B983B1853028F086B197B1E1
:1024D000986097B986B984B1805A84B913B885B128
:1024E000882309F480C088B18F5F88B98C3008F4E4
:1024F00052C086B197B1982F9F73892F8695869584
:10250000887028E0280F281769F0E82FF0E0ED5CCC
:10251000FE4F3081931739F08F5FF5CF84B18C5E19
:1025200084B9C7CF80E090E1899F9001112486B1E2
:1025300097B136E0969587953A95E1F7482F9595AE
:10254000879595958795887098E0980F981749F02A
:10255000E82FF0E0ED5CFE4F5081451719F08F5FDA
:10256000F5CF80E0822B90916D00911125C0809372
:102570006C0090916C00973020F090916C00943436
:10258000D8F015B8809110009091110001969093A9
:10259000110080931000FF91EF91BF91AF919F9137
:1025A0008F917F916F915F914F913F912F910F90FC
:1025B0000FBE0F901F901895E0916D0091E09E0F57
:1025C00090936D00F0E081A790916D0080916C0078
:1025D000981738F015B881E080B990E080E00E944B
:1025E0006F0518B8D8CF86B197B188339B4099F65C
:1025F00081E085B918B810926D00CDCF80910200AE
:1026000090910300039739F68091700091E0980F44
:1026100090937000811113C0E0916E008091FF00D3
:10262000E817A8F090E080E00E946F058091140008
:10263000909115000196909315008093140080915D
:102640007000883008F4A7CF10927000A4CFF0E09B
:10265000EF58FF4F608170E080916F0091E0980F1C
:1026600090936F0002C0759567958A95E2F7617047
:1026700080911C000E949B0380916F008630F8F2CD
:1026800010926F0080916E008F5F80936E00D7CFA5
:102690001F920F920FB60F9211242F933F934F93D7
:1026A0005F936F937F938F939F93AF93BF93EF93BA
:1026B000FF938091B900887F803609F44AC0F0F515
:1026C000883209F4A5C018F5803109F499C0B8F42E
:1026D000882309F4F5C0883009F492C0FF91EF9186
:1026E000BF91AF919F918F917F916F915F914F912A
:1026F0003F912F910F900FBE0F901F90189588312A
:1027000009F486C0803251F78093F40214C08034FB
:1027100009F49BC040F48033B9F38833F9F6809311
:10272000F40285ECAEC0803509F483C0883509F425
:1027300094C0883499F60E94FA10D0CF883909F4F1
:102740008AC038F5883729F050F4883611F0803780
:1027500029F683E08093F60210924C0255C0883827
:1027600009F479C0803919F0803809F0B7CF809129
:102770004C02803208F06FC0E0914C0281E08E0F75
:1027800080934C028091BB00F0E0E45DFD4F8083BC
:102790003BC0803B39F0D0F4803A09F477C0883AE6
:1027A00009F09CCF84E08093F60210922B021092E5
:1027B0002A02F0E0E0E0099580912A0281110FC021
:1027C00081E080932A0210920A0209C0803C09F439
:1027D000A8CF883C09F4A5CF883B09F07FCFE091D2
:1027E0002B0281E08E0F80932B02F0E0E65FFD4F1D
:1027F00080818093BB0090912B0280912A0229C096
:102800008091D1028093BB0085EC8093BC0066CFA1
:102810009091F3028091F202981758F5E091F3023B
:1028200081E08E0F8093F302F0E0EE52FD4F808145
:10283000E9CFE091F30281E08E0F8093F302809163
:10284000BB00F0E0EE52FD4F80839091F302809147
:10285000F2029817C8F285E8D8CFE091F30281E040
:102860008E0F8093F3028091BB00F0E0EE52FD4F9B
:1028700080838091F50281115ECF81E08093D00248
:1028800084EA8093BC001092F60228CF85EC8093F6
:10289000BC001092F60280914C02803230F4E0913C
:1028A0004C02F0E0E45DFD4F108260914C0270E05C
:1028B0008CE292E0F0E0E0E0099510924C020ECF3D
:1028C0001092F40238CFE0E2F3E01382128248EE75
:1028D00053E060E070E0448355836683778387E448
:1028E00091E09183808385EC90E09587848784ECE8
:1028F00090E09787868780EC90E0918B808B81ECCD
:1029000090E0938B828B82EC90E0958B848B86ECAD
:1029100090E0978B868B118E128E138E148EA4ED01
:10292000B4E013961C921E92129715961C921E925A
:10293000149717961C921E92169789E591E01196AE
:102940009C938E9380E518968C93189719961C92F9
:102950001997EDEBF3E0138212824483558366836B
:10296000778383E791E091838083EEE1F5E0108641
:1029700012861186138681E0848789EC91E0918329
:102980008083EEEDF4E0138212828FEF84838287DE
:10299000838714861586118A108A138A128A158AEB
:1029A000148A108E178AB28FA18F89E0838F85E8F1
:1029B00091E09183808317AE8CE0848F8AE0858FCD
:1029C000A9ECB3E01196FC93EE9312961C92129729
:1029D00013961D921D921D921C92169717961C928B
:1029E000179788EC90E019969C938E93189783E044
:1029F0001A968C93E4EDF3E080E091E0DF019C0116
:102A00001D9221503040E1F70895CF93DF93CDB769
:102A1000DEB72B970FB6F894DEBF0FBECDBF78940C
:102A200084B5826084BD84B5816084BD85B58260D3
:102A300085BD85B5816085BD80916E008160809384
:102A40006E001092810080918100826080938100ED
:102A500080918100816080938100809180008160FD
:102A6000809380008091B10084608093B100809158
:102A7000B00081608093B00080917A008460809380
:102A80007A0080917A00826080937A0080917A0047
:102A9000816080937A0080917A00806880937A00C8
:102AA0001092C100E0913003F091310312E01083E5
:102AB000E0912C03F0912D031082E0912E03F09110
:102AC0002F0383E3808310923803E0913403F09165
:102AD000350386E08083E0913203F09133038081F7
:102AE00080618083E0913203F091330380818860BC
:102AF0008083E0913203F09133038081806880838A
:102B0000E0913203F091330380818F7D80838EE3E7
:102B100094E00E942A0F83E394E00E942A0F90E041
:102B200080E00E94DF1E082F8093C10281E090E0C8
:102B30000E94DF1E8093060182E090E00E94DF1E6B
:102B40008093050183E090E00E94DF1E80930401E2
:102B5000802F0E942A038091060181508A3010F054
:102B6000109306018091050181508A3018F084E0AD
:102B70008093050160E082E00E94C90361E083E088
:102B80000E94C90361E084E00E94C90361E083E020
:102B90000E949B0361E084E00E949B0361E086E069
:102BA0000E94C90361E087E00E94C90361E085E0FB
:102BB0000E94C90382E294E00E942A0F8091C90317
:102BC0009091CA03DC01ED91FC910480F581E02D28
:102BD0000995882309F417C78091CB030E942A0323
:102BE00080EF93E00E942A0F8CED93E00E942A0F61
:102BF00089EC93E00E942A0F10922C058CE38093BD
:102C00002B051092200510922105E3ECF3E085914D
:102C10009491E82EE5ECF3E0F490E6ECF3E0E49137
:102C2000E0932205E7ECF3E0E491E0932305E8EC80
:102C3000F3E0E491E09324058C01802F8E198F1529
:102C400038F4F80184910E941A0B0F5F1F4FF5CFE3
:102C50000E94610B8BEA93E00E942A0FEDEAF0E0FC
:102C6000F0932805E09327058491EEEAF0E0E491E3
:102C7000F82F319709F0A4C01092250587E990E05C
:102C80000E942A0F80910401843038F010920401D0
:102C900060E083E090E00E94321140910401440F13
:102CA0004670496066E08EED94E00E94DF0581E8A1
:102CB00090E00E942A0F4FE0642E712C8E010F5F6E
:102CC0001F4F50E0252E50E0352E552453944424B8
:102CD000439460E080E00E943E0B84EF91E00E940C
:102CE000310D0E945204AB01BC01809151029091C0
:102CF0005202A0915302B0915402481759076A0733
:102D00007B0740F41092510210925202109253022B
:102D1000109254028091510290915202A09153025C
:102D2000B0915402481B590B6A0B7B0B483E534031
:102D30006105710508F47CC088519C4FAF4FBF4FAF
:102D40008093510290935202A0935302B093540285
:102D5000E7E0F1E020E090818281993029F431812F
:102D60003B3311F48B3329F08F5F8C3368F582830A
:102D700021E0349631E0E732F30769F7222309F4C2
:102D800057C060E087E00E949B03F12CE12CD12C1E
:102D9000C12C60E085E00E949B03E7E0F0E0EE19C3
:102DA000FF09EE0FFF1FEE0FFF1FE95FFE4F92813D
:102DB000C0FC15C080910501891718F160E025C09D
:102DC00081E0809325055ACF128281818F5F8C33F9
:102DD00010F48183CDCF11829F5F9083C9CF809102
:102DE0000601891728F481E020910501291708F4CC
:102DF00080E04FEFE41AF40A57E0E522FF2488232D
:102E0000E9F2838161E08823C9F286E00E949B0396
:102E100061E085E00E949B038FEFC81AD80A90E119
:102E2000C916D10409F0B5CF61E087E00E949B0389
:102E300060E080E00E943E0B88E092E00E94310D4D
:102E400060E080E00E943E0B8CE291E00E94310D38
:102E500060E083E00E949B03C3010197F1F761E00A
:102E600083E00E949B03C3010197F1F72CE5C22E7A
:102E700022E0D22E760160E084E00E949B03C30131
:102E80000197F1F782E00E947203892B09F496C33F
:102E9000D701DC965C92DC97DF961C92DF97DE967A
:102EA0001C92DE97DD961C9261E084E00E949B03F9
:102EB000C3010197F1F7B8E0EB1AF108ECE1EE1667
:102EC000E2E0FE06C1F660E080E00E943E0B80E496
:102ED00091E00E94310D8091C602882309F422C43A
:102EE00060E088E70E943E0B6DEA74E0C8010E9432
:102EF000FF0FC8010E94B60CC8010E94610F60E07C
:102F000080E70E943E0B809155026BEA74E08130AD
:102F100011F069EA74E0C8010E94FF0FC8010E9425
:102F2000B60CC8010E94610F64EA74E0C8010E94F7
:102F3000FF0FC8010E94B60CC8010E94610F80916A
:102F400006010E945F0D0E94D70C0E94D70C0E94C0
:102F5000D70C60E088E60E943E0B8091550262EA41
:102F600074E0823011F060EA74E0C8010E94FF0F43
:102F7000C8010E94B60CC8010E94610F6AE974E0A2
:102F8000C8010E94FF0FC8010E94B60CC8010E9430
:102F9000610F809105010E945F0D0E94D70C0E9475
:102FA000D70C0E94D70C0E94D70C60E080E60E94EC
:102FB0003E0B8091550268E974E0833011F066E9B8
:102FC00074E0C8010E94FF0FC8010E94B60CC8013E
:102FD0000E94610F62E974E0C8010E94FF0FC801FE
:102FE0000E94B60CC8010E94610F8091C1020E942C
:102FF0005F0D0E94D70C0E94D70C0E94D70C0E9434
:10300000D70C60E088E50E943E0B8091550260E994
:1030100074E0843011F06EE874E0C8010E94FF0F84
:10302000C8010E94B60CC8010E94610F69E874E0F3
:10303000C8010E94FF0FC8010E94B60CC8010E947F
:10304000610F809104010E945F0D0E94D70C0E94C5
:10305000D70C0E94D70C0E94D70C0E94D70C0E945C
:10306000D70C60E080E50E943E0B66E874E0C80182
:103070000E94FF0FC8010E94B60CC8010E94610F98
:1030800080915A0290915B020E94310D0E94D70CF0
:103090000E94D70C0E94D70C0E94D70C0E94D70C1C
:1030A0000E94D70C60E088E40E943E0B63E874E065
:1030B000C8010E94FF0FC8010E94B60CC8010E94FF
:1030C000610F8091A5029091A6020E94310D0E948D
:1030D000D70C0E94D70C0E94D70C0E94D70C0E94DC
:1030E000D70C0E94D70C0E94D70C60E080E40E94AD
:1030F0003E0B6EE774E0C8010E94FF0FC8010E94FA
:10310000B60CC8010E94610F80915A0290915B0237
:103110002091A5023091A602821B930B0E94310DD3
:103120000E94D70C0E94D70C0E94D70C0E94D70C8B
:103130000E94D70C0E94D70C0E94D70C60E088E355
:103140000E943E0B0E94D70C0E94D70C0E94D70C05
:103150000E94D70C0E94D70C0E94D70C0E94D70C5B
:1031600060E080E30E943E0B69E774E0C8010E94C2
:10317000FF0FC8010E94B60CC8010E94610F609148
:103180009C0270919D0280919E0290919F024AE064
:103190000E94DA0C0E94D70C0E94D70C0E94D70C18
:1031A0000E94D70C0E94D70C60E088E20E943E0B80
:1031B0000E94D70C0E94D70C0E94D70C0E94D70CFB
:1031C0000E94D70C0E94D70C0E94D70C80916202FB
:1031D000811104C080916302882331F01092C602ED
:1031E0000E94610B0E94D50A80916902811108C07A
:1031F00080916A02811104C080916B02882369F07A
:1032000080915502882349F01092690210926A0257
:1032100010926B028150809355028091710281114E
:1032200008C080917202811104C0809173028823CA
:1032300069F080915502843048F410927102109226
:103240007202109273028F5F80935502809179020F
:10325000811108C080917A02811104C080917B02A3
:103260008823E9F01092790210927A0210927B0280
:1032700080915502813009F0D4C160910601693016
:1032800070F4809105018150990B681719063CF480
:103290006F5F6093060181E090E00E94321180919F
:1032A0008102811108C080918202811104C0809145
:1032B0008302882369F11092810210928202109297
:1032C000830280915502813059F460910601633088
:1032D00038F061506093060181E090E00E94321165
:1032E00080915502823009F0E2C16091050163309E
:1032F00078F08091060190E001966817190641F078
:103300003CF061506093050182E090E00E94321130
:103310000E945204C0905602D0905702E09058028A
:10332000F09059029B01AC012C193D094E095F092F
:1033300069017A0135EFC31631E0D306E104F104E7
:1033400028F160935602709357028093580290932D
:10335000590285E0EEECF1E0D80101900D928A95DA
:10336000E1F78091C102452D481B65E0C8010E942C
:10337000660D20915A0230915B02882309F4CFC177
:103380002F5F3F4F30935B0220935A0260E080E052
:103390000E943E0B84E690E00E94310D8091C903AB
:1033A0009091CA03DC01ED91FC910680F781E02D3C
:1033B0000995882309F49FC0BAE1BB878091C903AE
:1033C0009091CA03DC01ED91FC910680F781E02D1C
:1033D0000995882309F411C38091C9039091CA0308
:1033E000DC01ED91FC910084F185E02DAE01455F9B
:1033F0005F4F67EA72E00995882309F4FEC2809165
:10340000C9039091CA03DC01ED91FC9100A4F1A5E0
:10341000E02D0995F82E8091C9039091CA03DC0133
:10342000ED91FC9106A0F7A1E02D0995D82E809191
:10343000C9039091CA03DC01ED91FC9102A4F3A5AC
:10344000E02D0995E82E8091C9039091CA03DC0113
:10345000ED91FC9104A4F5A5E02D099587FDCDC261
:103460008091CB038D1104C06F2D8E2D0E94F6022A
:10347000EF2DF0E0E753FC4F83858E1509F4BDC2B4
:10348000E3868B858A3108F470C28091A702833568
:1034900009F06BC28091A8028E3409F066C2A7EAD7
:1034A000B2E0E7E0F1E012968C9112978F3F09F0BD
:1034B00051C213821082118212821396349621E037
:1034C000E732F20781F780912701909128011816C1
:1034D00019066CF087E0E8EFF1E0D80101900D9259
:1034E0008A95E1F74F2D67E0C8010E94660D1092A2
:1034F00028011092270160E080E00E943E0B88E7DF
:1035000090E00E94310DE0902701F09028011E14F8
:103510001F04B4F50E9452048090C2029090C3022E
:10352000A090C402B090C502681979098A099B0964
:10353000643F71408105910518F10E945204609327
:10354000C2027093C3028093C4029093C50241E00B
:10355000E41AF108F0922801E092270188E0EFEFE9
:10356000F1E0D80101900D928A95E1F78091C102B6
:1035700041E050E0481B510968E0C8010E94660D17
:1035800060E088E00E943E0B80912D0590912E0511
:10359000009711F481E395E0D801A81BB90BCD0188
:1035A0000E94310D2114310409F493CB0E94C90407
:1035B000882309F48ECB0E94000087CBF70184ADED
:1035C0008823C9F014AE0E945204D701D8968D907A
:1035D0009D90AD90BC90DB97DC01CB0188199909D7
:1035E000AA09BB098938E3E19E07A105B10568F086
:1035F000D701DF965C920E945204D701D8966D9352
:103600007D938D939C93DB974FCC813D9740A10593
:10361000B10520F0D701DE965C92EDCFF70155AEF3
:10362000EACF823059F460910501693008F037CE55
:103630006F5F6093050182E090E02FCE8330A9F4A4
:103640008091C1028F5F8B3068F48093C1026091DA
:10365000C10290E080E00E9432118091C1020E947C
:103660002A031DCE1092C102F2CF843009F017CE8A
:10367000809104018F5F8430B8F4809304016091DD
:10368000040183E090E00E94321140910401440F54
:103690004670496066E08EED94E00E94DF0583E6A7
:1036A00094E00E942A0FFBCD10920401E8CF8330F2
:1036B000A1F48091C10281508B3068F48093C102E3
:1036C0006091C10290E080E00E9432118091C102BD
:1036D0000E942A031DCE8AE0F1CF843009F018CE73
:1036E0008091040181508B30B8F480930401609183
:1036F000040183E090E00E94321140910401440FE4
:103700004670496066E08EED94E00E94DF058DE42E
:1037100094E00E942A0FFCCD10920401E8CF2150C2
:10372000310930CE97E0A92E91E0B92E7501912C88
:10373000812CD60115968C911597882351F01596FA
:103740001C92F7011282118210824092A4020E9400
:10375000750ED60116968C911697882389F0F7017D
:1037600083818525838316961C92809127019091F1
:1037700028011816190624F04092A4020E94750E22
:10378000D60117968C918823B1F08114910499F495
:10379000109263020E94610B8091C602852580937E
:1037A000C6021092A6021092A50210925B0210921D
:1037B0005A020E94D50ABFEF8B1A9B0AE8E0CE0E90
:1037C000D11CF4E0EF0EF11C28E08216910409F000
:1037D000B0CF60E080E00E943E0B88E592E00E945E
:1037E000310D88E7D82EF12CE12C60E08D2D0E9460
:1037F0003E0B8FEFE81AF80AC7010E94310D6EEDFB
:1038000074E0C8010E94FF0FC8010E94B60CC801F5
:103810000E94610F6CED74E0C8010E94FF0FC801A7
:103820000E94B60CC8010E94610FD50113968C91BD
:1038300065ED74E08823F1F0F50180810E945F0D51
:1038400063ED74E0C8010E94FF0FC8010E94B60C2E
:10385000C8010E94610FD50111968C918A3020F425
:1038600090E080E00E94310DF50181810E945F0DA2
:103870006BEC74E0C8010E94FF0FC8010E94B60CF7
:10388000C8010E94610F38EFD30E44E0A40EB11CB2
:1038900058E3D512AACF80912701909128011816DC
:1038A00019060CF046C060E080E00E943E0B64EC1C
:1038B00074E0C8010E94FF0FC8010E94B60CC80145
:1038C0000E94610F60E080E00E943E0B8CE692E077
:1038D0000E94310D8091A402882309F457CD0E94E3
:1038E0005204C090A002D090A102E090A202F090F9
:1038F000A3026C197D098E099F09613D77408105FE
:10390000910508F443CD80919C0290919D02A09175
:103910009E02B0919F020196A11DB11D80939C0251
:1039200090939D02A0939E02B0939F020E94750EF9
:103930002DCD8091A40260E0882331F080E00E94C8
:103940003E0B6CEB74E0B5CF80E00E943E0B62EB67
:1039500074E0AFCF13962C91139714969C91149703
:103960005382808321839283A8CD6EEC71E087EA35
:1039700092E00E946020892BB9F48AE0E8EDF1E042
:10398000D80101900D928A95E1F74F2D6AE0C801A8
:103990000E94660D882329F083ED91E00E94480F74
:1039A000AACD82EE91E0FACF68ED71E087EA92E06D
:1039B0000E946020892B51F48091A5029091A6026B
:1039C00001969093A6028093A50295CD68EF71E0D1
:1039D00087EA92E00E946020892B19F41092A402D9
:1039E0008ACD6FEF71E087EA92E00E946020892B18
:1039F00009F081CD0E94750E7ECD8091A502909137
:103A0000A6020197DECF89E094E0ECC80F931F93E4
:103A1000CF93DF938230910510F482E090E0E09143
:103A20002F05F091300530E020E0B0E0A0E03097C5
:103A300099F42115310509F44AC0281B390B2430AB
:103A40003105D8F58A819B816115710589F1FB01EA
:103A500093838283FE0111C04081518102811381D1
:103A600048175907E0F04817590799F4109761F083
:103A700012960C93129713961C933296CF01DF91F6
:103A8000CF911F910F91089500932F05109330054A
:103A9000F4CF2115310551F04217530738F0A90131
:103AA000DB019A01BD01DF01F801C1CFEF01F9CFC0
:103AB0009093300580932F05CDCFFE01E20FF31FC9
:103AC000819391932250310939832883D7CF209154
:103AD0002D0530912E05232B41F420912B0130919F
:103AE0002C0130932E0520932D0520912901309132
:103AF0002A012115310541F42DB73EB740912D0122
:103B000050912E01241B350BE0912D05F0912E05CF
:103B1000E217F307A0F42E1B3F0B2817390778F0A4
:103B2000AC014E5F5F4F2417350748F04E0F5F1F03
:103B300050932E0540932D05819391939FCFF0E0F4
:103B4000E0E09CCFCF93DF930097E9F0FC01329740
:103B500013821282A0912F05B0913005ED0130E063
:103B600020E01097A1F420813181820F931F2091D2
:103B70002D0530912E052817390709F061C0F09303
:103B80002E05E0932D05DF91CF910895EA01CE1720
:103B9000DF07E8F54A815B819E0141155105B1F7C8
:103BA000E901FB83EA8349915991C40FD51FEC17B2
:103BB000FD0761F4808191810296840F951FE901D0
:103BC00099838883828193819B838A83F0E0E0E0FC
:103BD00012968D919C9113970097B9F52D913C9178
:103BE0001197CD010296820F931F20912D053091E0
:103BF0002E052817390739F6309751F51092300500
:103C000010922F05B0932E05A0932D05BCCFD38322
:103C1000C28340815181840F951FC817D90761F471
:103C20004E5F5F4F88819981480F591F51834083B0
:103C30008A819B81938382832115310509F0B0CF5E
:103C4000F0933005E0932F059ECFFD01DC01C0CF3E
:103C500013821282D7CF8F929F92AF92BF92CF9250
:103C6000DF92EF92FF92CF93DF93EC01688179812D
:103C70008A819B81611571058105910521F464E2BA
:103C800079ED8BE597E02DE133EF41E050E00E94C4
:103C9000F51E49015A019B01AC01A7EAB1E40E945B
:103CA000141F6B017C01ACEEB4EFA50194010E94DE
:103CB000221FC60ED71EE81EF91EF7FE06C081E0C1
:103CC000C81AD108E10880E8F80AC882D982EA82D5
:103CD000FB82C701B6019F77DF91CF91FF90EF90F4
:103CE000DF90CF90BF90AF909F908F9008958F926C
:103CF0009F92AF92BF92CF92DF92EF92FF9260912C
:103D00002F01709130018091310190913201611544
:103D100071058105910521F464E279ED8BE597E069
:103D20002DE133EF41E050E00E94F51E49015A01B8
:103D30009B01AC01A7EAB1E40E94141F6B017C0156
:103D4000ACEEB4EFA50194010E94221FC60ED71E4F
:103D5000E81EF91EF7FE06C081E0C81AD108E10886
:103D600080E8F80AC0922F01D0923001E092310130
:103D7000F0923201C701B6019F77FF90EF90DF907C
:103D8000CF90BF90AF909F908F90089560932F0138
:103D90007093300180933101909332010895FB01BB
:103DA000DC0105900D920020E1F70895FC010590DB
:103DB0000020E9F7809590958E0F9F1F0895F9993F
:103DC000FECF92BD81BDF89A992780B50895262F20
:103DD000F999FECF1FBA92BD81BD20BD0FB6F894F0
:103DE000FA9AF99A0FBE01960895052E97FB1EF4D4
:103DF00000940E940C1F57FD07D00E945E1F07FC15
:103E000003D04EF40C940C1F50954095309521959D
:103E10003F4F4F4F5F4F08959095809570956195F6
:103E20007F4F8F4F9F4F08950E94801FA59F900D39
:103E3000B49F900DA49F800D911D11240895B7FF8C
:103E40000C94141F0E94141F821B930B08952F9231
:103E50003F924F925F926F927F928F929F92AF921A
:103E6000BF92CF92DF92EF92FF920F931F93CF9367
:103E7000DF93CDB7DEB7CA1BDB0B0FB6F894DEBFFE
:103E80000FBECDBF09942A88398848885F846E8424
:103E90007D848C849B84AA84B984C884DF80EE806E
:103EA000FD800C811B81AA81B981CE0FD11D0FB677
:103EB000F894DEBF0FBECDBFED010895A1E21A2E2A
:103EC000AA1BBB1BFD010DC0AA1FBB1FEE1FFF1FBE
:103ED000A217B307E407F50720F0A21BB30BE40B0E
:103EE000F50B661F771F881F991F1A9469F7609555
:103EF0007095809590959B01AC01BD01CF0108950F
:103F0000A29FB001B39FC001A39F700D811D11241A
:103F1000911DB29F700D811D1124911D0895EE0F0A
:103F2000FF1F0590F491E02D0994B0E0A0E0EBE9CB
:103F3000FFE10C94291F8C01009751F4CB010E94E2
:103F4000061D8C01C801CDB7DEB7E0E10C94451F1A
:103F5000FC01E60FF71F9C0122503109E217F3071D
:103F600008F49DC0D901CD91DC911197C617D707F0
:103F700098F0C530D10530F3CE0104978617970726
:103F800008F3C61BD70B2297C193D1936D937C93F3
:103F9000CF010E94A21DD6CF5B01AC1ABD0A4C0115
:103FA0008C0E9D1EA0912F05B0913005512C412CF7
:103FB000F12CE12C109731F580912D0590912E0573
:103FC0008815990509F05CC04616570608F058C0D8
:103FD0008091290190912A01009741F48DB79EB7F5
:103FE00040912D0150912E01841B950BE817F90784
:103FF00008F055C0F0932E05E0932D05F90171836B
:104000006083A0CF8D919C91119712966C9012971E
:1040100013967C901397A815B90559F56C0142E0E9
:10402000C40ED11CCA14DB0420F1AC014A195B098F
:10403000DA011296159780F0628273825183408371
:10404000D9016D937C93E114F10471F0D7011396BB
:10405000FC93EE93129776CF22968C0F9D1FF90159
:1040600091838083F301EFCFF0933005E0932F0528
:1040700069CF4816590608F42C017D01D3019ACF67
:10408000CB010E94061D7C01009749F0AE01B801EA
:104090000E945720C8010E94A21D870153CF10E043
:1040A00000E050CF81E090E0F8940C946920FB018F
:1040B000DC0102C001900D9241505040D8F70895A4
:1040C000FB01DC018D91019080190110D9F3990B4E
:0640D0000895F894FFCFF3
:1040D6005E045E040404020000000100000001000A
:1040E60000000100000001000000010000000100C6
:1040F60000000100000001050000003105800001FC
:104106000000000D0E131516191A1C232526292A40
:104116002C323400000000FF045F048C044C05BD03
:10412600049B04AF04000000002108200820086B4F
:104136000F0C0830082C082808EF07DE07C4070014
:10414600000000A30A760AD20A20086F0A6C0A69E0
:104156000A000000006C05690F62076C0644107CBB
:10416600106D05F30805077208A908CE0E42086C03
:10417600086908660863085C086F085908560853FA
:104186000850084C0848084408E2053E083A083634
:10419600089905870500000000E10A0D0A0070690C
:1041A6006E670073656E742070696E675F72657303
:1041B600700073656E742070696E675F72657370E8
:1041C600206661696C65640073796E63656400736B
:0841D600796E6352657100006F
:00000001FF
